{
  "contractName": "IdentitiesChain",
  "abi": [
    {
      "inputs": [],
      "payable": false,
      "stateMutability": "nonpayable",
      "type": "constructor"
    },
    {
      "constant": false,
      "inputs": [
        {
          "name": "_usuario",
          "type": "string"
        },
        {
          "name": "_clave",
          "type": "string"
        }
      ],
      "name": "iniciarSesion",
      "outputs": [
        {
          "name": "",
          "type": "bool"
        }
      ],
      "payable": false,
      "stateMutability": "nonpayable",
      "type": "function"
    },
    {
      "constant": false,
      "inputs": [
        {
          "name": "_usuario",
          "type": "string"
        },
        {
          "name": "_clave",
          "type": "string"
        }
      ],
      "name": "nuevoUsuario",
      "outputs": [
        {
          "name": "",
          "type": "address"
        }
      ],
      "payable": false,
      "stateMutability": "nonpayable",
      "type": "function"
    },
    {
      "constant": true,
      "inputs": [],
      "name": "getUsuario",
      "outputs": [
        {
          "name": "",
          "type": "string"
        }
      ],
      "payable": false,
      "stateMutability": "view",
      "type": "function"
    },
    {
      "constant": false,
      "inputs": [
        {
          "name": "_nombre",
          "type": "string"
        },
        {
          "name": "_fecha",
          "type": "string"
        },
        {
          "name": "_sexo",
          "type": "string"
        },
        {
          "name": "_ciudad",
          "type": "string"
        },
        {
          "name": "_departamento",
          "type": "string"
        },
        {
          "name": "_url",
          "type": "string"
        }
      ],
      "name": "nuevaCedula",
      "outputs": [],
      "payable": false,
      "stateMutability": "nonpayable",
      "type": "function"
    },
    {
      "constant": true,
      "inputs": [],
      "name": "getCedula",
      "outputs": [
        {
          "name": "",
          "type": "string"
        },
        {
          "name": "",
          "type": "string"
        },
        {
          "name": "",
          "type": "string"
        },
        {
          "name": "",
          "type": "string"
        },
        {
          "name": "",
          "type": "string"
        },
        {
          "name": "",
          "type": "string"
        },
        {
          "name": "",
          "type": "address"
        }
      ],
      "payable": false,
      "stateMutability": "view",
      "type": "function"
    },
    {
      "constant": false,
      "inputs": [
        {
          "name": "_destinatario",
          "type": "address"
        },
        {
          "name": "_docs",
          "type": "string[]"
        },
        {
          "name": "idPermiso",
          "type": "string"
        }
      ],
      "name": "compartir",
      "outputs": [],
      "payable": false,
      "stateMutability": "nonpayable",
      "type": "function"
    }
  ],
  "bytecode": "0x608060405234801561001057600080fd5b50611b2c806100206000396000f3fe608060405260043610610078576000357c0100000000000000000000000000000000000000000000000000000000900463ffffffff16806336d3bd9e1461007d57806349bc8d18146100ba5780636a738513146100e5578063aa31db821461010e578063b27cabdd14610137578063c6ce03d614610168575b600080fd5b34801561008957600080fd5b506100a4600480360361009f91908101906116cd565b6101a5565b6040516100b191906118a6565b60405180910390f35b3480156100c657600080fd5b506100cf6102bf565b6040516100dc91906118dc565b60405180910390f35b3480156100f157600080fd5b5061010c6004803603610107919081019061164e565b6103a1565b005b34801561011a57600080fd5b5061013560048036036101309190810190611739565b61062f565b005b34801561014357600080fd5b5061014c610919565b60405161015f97969594939291906118fe565b60405180910390f35b34801561017457600080fd5b5061018f600480360361018a91908101906116cd565b610f69565b60405161019c91906118c1565b60405180910390f35b600082600160003373ffffffffffffffffffffffffffffffffffffffff1673ffffffffffffffffffffffffffffffffffffffff16815260200190815260200160002060000190805190602001906101fd929190611228565b5081600160003373ffffffffffffffffffffffffffffffffffffffff1673ffffffffffffffffffffffffffffffffffffffff1681526020019081526020016000206001019080519060200190610254929190611228565b50336000806101000a81548173ffffffffffffffffffffffffffffffffffffffff021916908373ffffffffffffffffffffffffffffffffffffffff1602179055506000809054906101000a900473ffffffffffffffffffffffffffffffffffffffff16905092915050565b6060600160003373ffffffffffffffffffffffffffffffffffffffff1673ffffffffffffffffffffffffffffffffffffffff1681526020019081526020016000206000018054600181600116156101000203166002900480601f0160208091040260200160405190810160405280929190818152602001828054600181600116156101000203166002900480156103975780601f1061036c57610100808354040283529160200191610397565b820191906000526020600020905b81548152906001019060200180831161037a57829003601f168201915b5050505050905090565b336002826040518082805190602001908083835b6020831015156103da57805182526020820191506020810190506020830392506103b5565b6001836020036101000a038019825116818451168082178552505050505050905001915050908152602001604051809103902060000160006101000a81548173ffffffffffffffffffffffffffffffffffffffff021916908373ffffffffffffffffffffffffffffffffffffffff160217905550816002826040518082805190602001908083835b6020831015156104875780518252602082019150602081019050602083039250610462565b6001836020036101000a038019825116818451168082178552505050505050905001915050908152602001604051809103902060010190805190602001906104d09291906112a8565b50600160008473ffffffffffffffffffffffffffffffffffffffff1673ffffffffffffffffffffffffffffffffffffffff1681526020019081526020016000206008016002826040518082805190602001908083835b60208310151561054b5780518252602082019150602081019050602083039250610526565b6001836020036101000a0380198251168184511680821785525050505050509050019150509081526020016040518091039020908060018154018082558091505090600182039060005260206000209060020201600090919290919091506000820160009054906101000a900473ffffffffffffffffffffffffffffffffffffffff168160000160006101000a81548173ffffffffffffffffffffffffffffffffffffffff021916908373ffffffffffffffffffffffffffffffffffffffff1602179055506001820181600101908054610626929190611308565b50505050505050565b85600160008060009054906101000a900473ffffffffffffffffffffffffffffffffffffffff1673ffffffffffffffffffffffffffffffffffffffff1673ffffffffffffffffffffffffffffffffffffffff16815260200190815260200160002060020160000190805190602001906106a9929190611228565b5084600160008060009054906101000a900473ffffffffffffffffffffffffffffffffffffffff1673ffffffffffffffffffffffffffffffffffffffff1673ffffffffffffffffffffffffffffffffffffffff1681526020019081526020016000206002016001019080519060200190610724929190611228565b5083600160008060009054906101000a900473ffffffffffffffffffffffffffffffffffffffff1673ffffffffffffffffffffffffffffffffffffffff1673ffffffffffffffffffffffffffffffffffffffff168152602001908152602001600020600201600201908051906020019061079f929190611228565b5082600160008060009054906101000a900473ffffffffffffffffffffffffffffffffffffffff1673ffffffffffffffffffffffffffffffffffffffff1673ffffffffffffffffffffffffffffffffffffffff168152602001908152602001600020600201600301908051906020019061081a929190611228565b5081600160008060009054906101000a900473ffffffffffffffffffffffffffffffffffffffff1673ffffffffffffffffffffffffffffffffffffffff1673ffffffffffffffffffffffffffffffffffffffff1681526020019081526020016000206002016004019080519060200190610895929190611228565b5080600160008060009054906101000a900473ffffffffffffffffffffffffffffffffffffffff1673ffffffffffffffffffffffffffffffffffffffff1673ffffffffffffffffffffffffffffffffffffffff1681526020019081526020016000206002016005019080519060200190610910929190611228565b50505050505050565b6060806060806060806000600160008060009054906101000a900473ffffffffffffffffffffffffffffffffffffffff1673ffffffffffffffffffffffffffffffffffffffff1673ffffffffffffffffffffffffffffffffffffffff168152602001908152602001600020600201600001600160008060009054906101000a900473ffffffffffffffffffffffffffffffffffffffff1673ffffffffffffffffffffffffffffffffffffffff1673ffffffffffffffffffffffffffffffffffffffff168152602001908152602001600020600201600101600160008060009054906101000a900473ffffffffffffffffffffffffffffffffffffffff1673ffffffffffffffffffffffffffffffffffffffff1673ffffffffffffffffffffffffffffffffffffffff168152602001908152602001600020600201600201600160008060009054906101000a900473ffffffffffffffffffffffffffffffffffffffff1673ffffffffffffffffffffffffffffffffffffffff1673ffffffffffffffffffffffffffffffffffffffff168152602001908152602001600020600201600301600160008060009054906101000a900473ffffffffffffffffffffffffffffffffffffffff1673ffffffffffffffffffffffffffffffffffffffff1673ffffffffffffffffffffffffffffffffffffffff168152602001908152602001600020600201600401600160008060009054906101000a900473ffffffffffffffffffffffffffffffffffffffff1673ffffffffffffffffffffffffffffffffffffffff1673ffffffffffffffffffffffffffffffffffffffff1681526020019081526020016000206002016005016000809054906101000a900473ffffffffffffffffffffffffffffffffffffffff16868054600181600116156101000203166002900480601f016020809104026020016040519081016040528092919081815260200182805460018160011615610100020316600290048015610c3f5780601f10610c1457610100808354040283529160200191610c3f565b820191906000526020600020905b815481529060010190602001808311610c2257829003601f168201915b50505050509650858054600181600116156101000203166002900480601f016020809104026020016040519081016040528092919081815260200182805460018160011615610100020316600290048015610cdb5780601f10610cb057610100808354040283529160200191610cdb565b820191906000526020600020905b815481529060010190602001808311610cbe57829003601f168201915b50505050509550848054600181600116156101000203166002900480601f016020809104026020016040519081016040528092919081815260200182805460018160011615610100020316600290048015610d775780601f10610d4c57610100808354040283529160200191610d77565b820191906000526020600020905b815481529060010190602001808311610d5a57829003601f168201915b50505050509450838054600181600116156101000203166002900480601f016020809104026020016040519081016040528092919081815260200182805460018160011615610100020316600290048015610e135780601f10610de857610100808354040283529160200191610e13565b820191906000526020600020905b815481529060010190602001808311610df657829003601f168201915b50505050509350828054600181600116156101000203166002900480601f016020809104026020016040519081016040528092919081815260200182805460018160011615610100020316600290048015610eaf5780601f10610e8457610100808354040283529160200191610eaf565b820191906000526020600020905b815481529060010190602001808311610e9257829003601f168201915b50505050509250818054600181600116156101000203166002900480601f016020809104026020016040519081016040528092919081815260200182805460018160011615610100020316600290048015610f4b5780601f10610f2057610100808354040283529160200191610f4b565b820191906000526020600020905b815481529060010190602001808311610f2e57829003601f168201915b50505050509150965096509650965096509650965090919293949596565b6000826040516020018082805190602001908083835b602083101515610fa45780518252602082019150602081019050602083039250610f7f565b6001836020036101000a03801982511681845116808217855250505050505090500191505060405160208183030381529060405280519060200120600160003373ffffffffffffffffffffffffffffffffffffffff1673ffffffffffffffffffffffffffffffffffffffff168152602001908152602001600020600001604051602001808280546001816001161561010002031660029004801561107f5780601f1061105d57610100808354040283529182019161107f565b820191906000526020600020905b81548152906001019060200180831161106b575b5050915050604051602081830303815290604052805190602001201480156111d35750816040516020018082805190602001908083835b6020831015156110db57805182526020820191506020810190506020830392506110b6565b6001836020036101000a03801982511681845116808217855250505050505090500191505060405160208183030381529060405280519060200120600160003373ffffffffffffffffffffffffffffffffffffffff1673ffffffffffffffffffffffffffffffffffffffff16815260200190815260200160002060010160405160200180828054600181600116156101000203166002900480156111b65780601f106111945761010080835404028352918201916111b6565b820191906000526020600020905b8154815290600101906020018083116111a2575b505091505060405160208183030381529060405280519060200120145b15156111de57600080fd5b336000806101000a81548173ffffffffffffffffffffffffffffffffffffffff021916908373ffffffffffffffffffffffffffffffffffffffff1602179055506001905092915050565b828054600181600116156101000203166002900490600052602060002090601f016020900481019282601f1061126957805160ff1916838001178555611297565b82800160010185558215611297579182015b8281111561129657825182559160200191906001019061127b565b5b5090506112a49190611378565b5090565b8280548282559060005260206000209081019282156112f7579160200282015b828111156112f65782518290805190602001906112e692919061139d565b50916020019190600101906112c8565b5b509050611304919061141d565b5090565b8280548282559060005260206000209081019282156113675760005260206000209182015b828111156113665782829080546001816001161561010002031660029004611356929190611449565b509160010191906001019061132d565b5b509050611374919061141d565b5090565b61139a91905b8082111561139657600081600090555060010161137e565b5090565b90565b828054600181600116156101000203166002900490600052602060002090601f016020900481019282601f106113de57805160ff191683800117855561140c565b8280016001018555821561140c579182015b8281111561140b5782518255916020019190600101906113f0565b5b5090506114199190611378565b5090565b61144691905b80821115611442576000818161143991906114d0565b50600101611423565b5090565b90565b828054600181600116156101000203166002900490600052602060002090601f016020900481019282601f1061148257805485556114bf565b828001600101855582156114bf57600052602060002091601f016020900482015b828111156114be5782548255916001019190600101906114a3565b5b5090506114cc9190611378565b5090565b50805460018160011615610100020316600290046000825580601f106114f65750611515565b601f0160209004906000526020600020908101906115149190611378565b5b50565b60006115248235611a8d565b905092915050565b600082601f830112151561153f57600080fd5b813561155261154d826119c4565b611997565b9150818183526020840193506020810190508360005b83811015611598578135860161157e88826115a2565b845260208401935060208301925050600181019050611568565b5050505092915050565b600082601f83011215156115b557600080fd5b81356115c86115c3826119ec565b611997565b915080825260208301602083018583830111156115e457600080fd5b6115ef838284611a9f565b50505092915050565b600082601f830112151561160b57600080fd5b813561161e61161982611a18565b611997565b9150808252602083016020830185838301111561163a57600080fd5b611645838284611a9f565b50505092915050565b60008060006060848603121561166357600080fd5b600061167186828701611518565b935050602084013567ffffffffffffffff81111561168e57600080fd5b61169a8682870161152c565b925050604084013567ffffffffffffffff8111156116b757600080fd5b6116c3868287016115f8565b9150509250925092565b600080604083850312156116e057600080fd5b600083013567ffffffffffffffff8111156116fa57600080fd5b611706858286016115f8565b925050602083013567ffffffffffffffff81111561172357600080fd5b61172f858286016115f8565b9150509250929050565b60008060008060008060c0878903121561175257600080fd5b600087013567ffffffffffffffff81111561176c57600080fd5b61177889828a016115f8565b965050602087013567ffffffffffffffff81111561179557600080fd5b6117a189828a016115f8565b955050604087013567ffffffffffffffff8111156117be57600080fd5b6117ca89828a016115f8565b945050606087013567ffffffffffffffff8111156117e757600080fd5b6117f389828a016115f8565b935050608087013567ffffffffffffffff81111561181057600080fd5b61181c89828a016115f8565b92505060a087013567ffffffffffffffff81111561183957600080fd5b61184589828a016115f8565b9150509295509295509295565b61185b81611a4f565b82525050565b61186a81611a61565b82525050565b600061187b82611a44565b80845261188f816020860160208601611aae565b61189881611ae1565b602085010191505092915050565b60006020820190506118bb6000830184611852565b92915050565b60006020820190506118d66000830184611861565b92915050565b600060208201905081810360008301526118f68184611870565b905092915050565b600060e0820190508181036000830152611918818a611870565b9050818103602083015261192c8189611870565b905081810360408301526119408188611870565b905081810360608301526119548187611870565b905081810360808301526119688186611870565b905081810360a083015261197c8185611870565b905061198b60c0830184611852565b98975050505050505050565b6000604051905081810181811067ffffffffffffffff821117156119ba57600080fd5b8060405250919050565b600067ffffffffffffffff8211156119db57600080fd5b602082029050602081019050919050565b600067ffffffffffffffff821115611a0357600080fd5b601f19601f8301169050602081019050919050565b600067ffffffffffffffff821115611a2f57600080fd5b601f19601f8301169050602081019050919050565b600081519050919050565b6000611a5a82611a6d565b9050919050565b60008115159050919050565b600073ffffffffffffffffffffffffffffffffffffffff82169050919050565b6000611a9882611a6d565b9050919050565b82818337600083830152505050565b60005b83811015611acc578082015181840152602081019050611ab1565b83811115611adb576000848401525b50505050565b6000601f19601f830116905091905056fea265627a7a72305820f8b08b96765ca5ce0e08bffb7986cc09ab6d773ad4c49a69dc2d7624375adf926c6578706572696d656e74616cf50037",
  "source": "pragma solidity ^0.5.0;\r\npragma experimental ABIEncoderV2;\r\n\r\ncontract IdentitiesChain {\r\n    \r\n    struct Usuario{\r\n        string usuario;\r\n        string clave;\r\n        Cedula cedula;\r\n        Permiso[] permisos;\r\n    }\r\n    \r\n    struct Cedula{\r\n        string nombre;\r\n        string fecha;\r\n        string sexo;\r\n        string ciudad;\r\n        string departamento;\r\n        string url;\r\n    }\r\n\r\n    struct Documento{\r\n        string nombre;\r\n        string url;\r\n    }\r\n\r\n    struct Permiso{\r\n        address duenio;\r\n        string[] docs; \r\n    }\r\n    \r\n    address usuarioActivo;\r\n    mapping(address => Usuario) usuarios;\r\n    mapping(string => Permiso) permisos;\r\n   \r\n   constructor() public {}\r\n   \r\n   function iniciarSesion(string memory _usuario, string memory _clave) public returns(bool){\r\n       require(keccak256(abi.encodePacked((usuarios[msg.sender].usuario))) == keccak256(abi.encodePacked((_usuario))) && keccak256(abi.encodePacked((usuarios[msg.sender].clave))) == keccak256(abi.encodePacked((_clave))) );\r\n       usuarioActivo = msg.sender;\r\n       return true;\r\n   }\r\n   \r\n   function nuevoUsuario(string memory _usuario, string memory _clave) public returns(address){\r\n\r\n        //Usuario memory user;\r\n        //user = usuarios[msg.sender];\r\n        usuarios[msg.sender].usuario = _usuario;\r\n        usuarios[msg.sender].clave = _clave;\r\n        usuarioActivo = msg.sender;\r\n        return usuarioActivo;\r\n    }\r\n    \r\n    function getUsuario() public view returns(string memory) {\r\n        return usuarios[msg.sender].usuario;\r\n    }\r\n    \r\n    function nuevaCedula(string memory _nombre, string memory _fecha, string memory _sexo, string memory _ciudad, string memory _departamento, string memory _url) public {\r\n\r\n        //Cedula memory _cedula = usuarios[usuarioActivo].cedula;\r\n        usuarios[usuarioActivo].cedula.nombre = _nombre;\r\n        usuarios[usuarioActivo].cedula.fecha = _fecha;\r\n        usuarios[usuarioActivo].cedula.sexo = _sexo;\r\n        usuarios[usuarioActivo].cedula.ciudad = _ciudad;\r\n        usuarios[usuarioActivo].cedula.departamento = _departamento;\r\n        usuarios[usuarioActivo].cedula.url = _url;\r\n    }\r\n    \r\n    function getCedula() public view returns(string memory, string memory, string memory, string memory, string memory, string memory, address){\r\n        //Cedula memory _cedula = usuarios[usuarioActivo].cedula;\r\n        return (usuarios[usuarioActivo].cedula.nombre, usuarios[usuarioActivo].cedula.fecha, usuarios[usuarioActivo].cedula.sexo,\r\n         usuarios[usuarioActivo].cedula.ciudad, usuarios[usuarioActivo].cedula.departamento, usuarios[usuarioActivo].cedula.url, usuarioActivo);\r\n    }\r\n\r\n    function compartir(address _destinatario, string[] memory _docs, string memory idPermiso) public {\r\n        permisos[idPermiso].duenio = msg.sender;\r\n        permisos[idPermiso].docs = _docs;\r\n        usuarios[_destinatario].permisos.push(permisos[idPermiso]);\r\n    }\r\n   \r\n}",
  "sourcePath": "D:/Blockchain/aplicacionAngular/contracts/IdentitiesChain.sol",
  "compiler": {
    "name": "solc",
    "version": "0.5.0+commit.1d4f565a.Emscripten.clang"
  },
  "schemaVersion": "3.0.9",
  "updatedAt": "2019-05-13T23:11:15.490Z",
  "devdoc": {
    "methods": {}
  },
  "userdoc": {
    "methods": {}
  }
}