{
  "contractName": "IdentitiesChain",
  "abi": [
    {
      "inputs": [],
      "payable": false,
      "stateMutability": "nonpayable",
      "type": "constructor"
    },
    {
      "anonymous": false,
      "inputs": [
        {
          "indexed": false,
          "name": "nombre",
          "type": "string"
        },
        {
          "indexed": false,
          "name": "fecha",
          "type": "string"
        },
        {
          "indexed": false,
          "name": "sexo",
          "type": "string"
        },
        {
          "indexed": false,
          "name": "ciudad",
          "type": "string"
        },
        {
          "indexed": false,
          "name": "departamento",
          "type": "string"
        },
        {
          "indexed": false,
          "name": "url",
          "type": "string"
        },
        {
          "indexed": false,
          "name": "adr",
          "type": "address"
        }
      ],
      "name": "Cedulita",
      "type": "event"
    },
    {
      "anonymous": false,
      "inputs": [
        {
          "components": [
            {
              "name": "nombre",
              "type": "string"
            },
            {
              "name": "url",
              "type": "string"
            },
            {
              "name": "hash",
              "type": "string"
            }
          ],
          "indexed": false,
          "name": "docs",
          "type": "tuple[]"
        }
      ],
      "name": "Documentos",
      "type": "event"
    },
    {
      "anonymous": false,
      "inputs": [
        {
          "components": [
            {
              "name": "duenio",
              "type": "address"
            },
            {
              "components": [
                {
                  "name": "nombre",
                  "type": "string"
                },
                {
                  "name": "url",
                  "type": "string"
                },
                {
                  "name": "hash",
                  "type": "string"
                }
              ],
              "name": "docs",
              "type": "tuple[]"
            }
          ],
          "indexed": false,
          "name": "perms",
          "type": "tuple[]"
        }
      ],
      "name": "Permisos",
      "type": "event"
    },
    {
      "constant": false,
      "inputs": [
        {
          "name": "_usuario",
          "type": "string"
        },
        {
          "name": "_clave",
          "type": "string"
        }
      ],
      "name": "iniciarSesion",
      "outputs": [
        {
          "name": "",
          "type": "bool"
        }
      ],
      "payable": false,
      "stateMutability": "nonpayable",
      "type": "function"
    },
    {
      "constant": false,
      "inputs": [
        {
          "name": "_usuario",
          "type": "string"
        },
        {
          "name": "_clave",
          "type": "string"
        },
        {
          "name": "sender",
          "type": "address"
        }
      ],
      "name": "nuevoUsuario",
      "outputs": [
        {
          "name": "",
          "type": "address"
        }
      ],
      "payable": false,
      "stateMutability": "nonpayable",
      "type": "function"
    },
    {
      "constant": true,
      "inputs": [],
      "name": "getUsuario",
      "outputs": [
        {
          "name": "",
          "type": "string"
        }
      ],
      "payable": false,
      "stateMutability": "view",
      "type": "function"
    },
    {
      "constant": false,
      "inputs": [
        {
          "name": "_nombre",
          "type": "string"
        },
        {
          "name": "_fecha",
          "type": "string"
        },
        {
          "name": "_sexo",
          "type": "string"
        },
        {
          "name": "_ciudad",
          "type": "string"
        },
        {
          "name": "_departamento",
          "type": "string"
        },
        {
          "name": "_url",
          "type": "string"
        }
      ],
      "name": "nuevaCedula",
      "outputs": [],
      "payable": false,
      "stateMutability": "nonpayable",
      "type": "function"
    },
    {
      "constant": false,
      "inputs": [
        {
          "name": "dir",
          "type": "string"
        }
      ],
      "name": "getCedula",
      "outputs": [
        {
          "name": "",
          "type": "string"
        },
        {
          "name": "",
          "type": "string"
        },
        {
          "name": "",
          "type": "string"
        },
        {
          "name": "",
          "type": "string"
        },
        {
          "name": "",
          "type": "string"
        },
        {
          "name": "",
          "type": "string"
        },
        {
          "name": "",
          "type": "address"
        }
      ],
      "payable": false,
      "stateMutability": "nonpayable",
      "type": "function"
    },
    {
      "constant": false,
      "inputs": [
        {
          "name": "_nombre",
          "type": "string"
        },
        {
          "name": "_url",
          "type": "string"
        },
        {
          "name": "_hash",
          "type": "string"
        },
        {
          "name": "_idDoc",
          "type": "string"
        }
      ],
      "name": "nuevoDocumento",
      "outputs": [],
      "payable": false,
      "stateMutability": "nonpayable",
      "type": "function"
    },
    {
      "constant": false,
      "inputs": [],
      "name": "getDocumentos",
      "outputs": [
        {
          "components": [
            {
              "name": "nombre",
              "type": "string"
            },
            {
              "name": "url",
              "type": "string"
            },
            {
              "name": "hash",
              "type": "string"
            }
          ],
          "name": "misDocs",
          "type": "tuple[]"
        }
      ],
      "payable": false,
      "stateMutability": "nonpayable",
      "type": "function"
    },
    {
      "constant": false,
      "inputs": [
        {
          "name": "_destinatario",
          "type": "address"
        },
        {
          "name": "_idDocs",
          "type": "string[]"
        },
        {
          "name": "idPermiso",
          "type": "string"
        }
      ],
      "name": "compartir",
      "outputs": [],
      "payable": false,
      "stateMutability": "nonpayable",
      "type": "function"
    },
    {
      "constant": false,
      "inputs": [],
      "name": "getPermisos",
      "outputs": [
        {
          "components": [
            {
              "name": "duenio",
              "type": "address"
            },
            {
              "components": [
                {
                  "name": "nombre",
                  "type": "string"
                },
                {
                  "name": "url",
                  "type": "string"
                },
                {
                  "name": "hash",
                  "type": "string"
                }
              ],
              "name": "docs",
              "type": "tuple[]"
            }
          ],
          "name": "p",
          "type": "tuple[]"
        }
      ],
      "payable": false,
      "stateMutability": "nonpayable",
      "type": "function"
    }
  ],
  "bytecode": "0x608060405234801561001057600080fd5b50612531806100206000396000f3fe608060405260043610610099576000357c0100000000000000000000000000000000000000000000000000000000900463ffffffff16806329eff33b1461009e57806349bc8d18146100c95780636a738513146100f4578063738cbe461461011d578063804851c014610160578063aa31db821461018b578063c6ce03d6146101b4578063da01959c146101f1578063ea877d051461021a575b600080fd5b3480156100aa57600080fd5b506100b3610257565b6040516100c091906120b8565b60405180910390f35b3480156100d557600080fd5b506100de6102f5565b6040516100eb919061215b565b60405180910390f35b34801561010057600080fd5b5061011b600480360361011691908101906118a1565b6103d7565b005b34801561012957600080fd5b50610144600480360361013f9190810190611920565b61079b565b604051610157979695949392919061217d565b60405180910390f35b34801561016c57600080fd5b50610175610a73565b60405161018291906120fc565b60405180910390f35b34801561019757600080fd5b506101b260048036036101ad9190810190611b0f565b610b11565b005b3480156101c057600080fd5b506101db60048036036101d69190810190611961565b610dfb565b6040516101e89190612140565b60405180910390f35b3480156101fd57600080fd5b5061021860048036036102139190810190611a4c565b6110ba565b005b34801561022657600080fd5b50610241600480360361023c91908101906119cd565b6113bd565b60405161024e919061209d565b60405180910390f35b60607fad916249b739355ba7a62b1532546d281dbe918154cb13f91542edd181372ee4600160008060009054906101000a900473ffffffffffffffffffffffffffffffffffffffff1673ffffffffffffffffffffffffffffffffffffffff1673ffffffffffffffffffffffffffffffffffffffff1681526020019081526020016000206008016040516102ea91906120da565b60405180910390a190565b6060600160003373ffffffffffffffffffffffffffffffffffffffff1673ffffffffffffffffffffffffffffffffffffffff1681526020019081526020016000206000018054600181600116156101000203166002900480601f0160208091040260200160405190810160405280929190818152602001828054600181600116156101000203166002900480156103cd5780601f106103a2576101008083540402835291602001916103cd565b820191906000526020600020905b8154815290600101906020018083116103b057829003601f168201915b5050505050905090565b336002826040518082805190602001908083835b60208310151561041057805182526020820191506020810190506020830392506103eb565b6001836020036101000a038019825116818451168082178552505050505050905001915050908152602001604051809103902060000160006101000a81548173ffffffffffffffffffffffffffffffffffffffff021916908373ffffffffffffffffffffffffffffffffffffffff16021790555060008251905060008090505b8181101561063b576002836040518082805190602001908083835b6020831015156104d057805182526020820191506020810190506020830392506104ab565b6001836020036101000a03801982511681845116808217855250505050505090500191505090815260200160405180910390206001016003858381518110151561051657fe5b906020019060200201516040518082805190602001908083835b6020831015156105555780518252602082019150602081019050602083039250610530565b6001836020036101000a038019825116818451168082178552505050505050905001915050908152602001604051809103902090806001815401808255809150509060018203906000526020600020906003020160009091929091909150600082018160000190805460018160011615610100020316600290046105da9291906114d8565b50600182018160010190805460018160011615610100020316600290046106029291906114d8565b506002820181600201908054600181600116156101000203166002900461062a9291906114d8565b505050508080600101915050610490565b50600160008573ffffffffffffffffffffffffffffffffffffffff1673ffffffffffffffffffffffffffffffffffffffff1681526020019081526020016000206009016002836040518082805190602001908083835b6020831015156106b65780518252602082019150602081019050602083039250610691565b6001836020036101000a0380198251168184511680821785525050505050509050019150509081526020016040518091039020908060018154018082558091505090600182039060005260206000209060020201600090919290919091506000820160009054906101000a900473ffffffffffffffffffffffffffffffffffffffff168160000160006101000a81548173ffffffffffffffffffffffffffffffffffffffff021916908373ffffffffffffffffffffffffffffffffffffffff160217905550600182018160010190805461079192919061155f565b5050505050505050565b60608060608060608060007ffa0a37b2dc978d7fea580d156d0eff4fd7eaf452b7c98be313750fc94bca356d600160008060009054906101000a900473ffffffffffffffffffffffffffffffffffffffff1673ffffffffffffffffffffffffffffffffffffffff1673ffffffffffffffffffffffffffffffffffffffff168152602001908152602001600020600201600001600160008060009054906101000a900473ffffffffffffffffffffffffffffffffffffffff1673ffffffffffffffffffffffffffffffffffffffff1673ffffffffffffffffffffffffffffffffffffffff168152602001908152602001600020600201600101600160008060009054906101000a900473ffffffffffffffffffffffffffffffffffffffff1673ffffffffffffffffffffffffffffffffffffffff1673ffffffffffffffffffffffffffffffffffffffff168152602001908152602001600020600201600201600160008060009054906101000a900473ffffffffffffffffffffffffffffffffffffffff1673ffffffffffffffffffffffffffffffffffffffff1673ffffffffffffffffffffffffffffffffffffffff168152602001908152602001600020600201600301600160008060009054906101000a900473ffffffffffffffffffffffffffffffffffffffff1673ffffffffffffffffffffffffffffffffffffffff1673ffffffffffffffffffffffffffffffffffffffff168152602001908152602001600020600201600401600160008060009054906101000a900473ffffffffffffffffffffffffffffffffffffffff1673ffffffffffffffffffffffffffffffffffffffff1673ffffffffffffffffffffffffffffffffffffffff1681526020019081526020016000206002016005016000809054906101000a900473ffffffffffffffffffffffffffffffffffffffff16604051610a609796959493929190612216565b60405180910390a1919395979092949650565b60607fef59d30396bef67a777ab4515481b8b8cda0dffc7f846e1779660cd4789c76cb600160008060009054906101000a900473ffffffffffffffffffffffffffffffffffffffff1673ffffffffffffffffffffffffffffffffffffffff1673ffffffffffffffffffffffffffffffffffffffff168152602001908152602001600020600901604051610b06919061211e565b60405180910390a190565b85600160008060009054906101000a900473ffffffffffffffffffffffffffffffffffffffff1673ffffffffffffffffffffffffffffffffffffffff1673ffffffffffffffffffffffffffffffffffffffff1681526020019081526020016000206002016000019080519060200190610b8b92919061162f565b5084600160008060009054906101000a900473ffffffffffffffffffffffffffffffffffffffff1673ffffffffffffffffffffffffffffffffffffffff1673ffffffffffffffffffffffffffffffffffffffff1681526020019081526020016000206002016001019080519060200190610c0692919061162f565b5083600160008060009054906101000a900473ffffffffffffffffffffffffffffffffffffffff1673ffffffffffffffffffffffffffffffffffffffff1673ffffffffffffffffffffffffffffffffffffffff1681526020019081526020016000206002016002019080519060200190610c8192919061162f565b5082600160008060009054906101000a900473ffffffffffffffffffffffffffffffffffffffff1673ffffffffffffffffffffffffffffffffffffffff1673ffffffffffffffffffffffffffffffffffffffff1681526020019081526020016000206002016003019080519060200190610cfc92919061162f565b5081600160008060009054906101000a900473ffffffffffffffffffffffffffffffffffffffff1673ffffffffffffffffffffffffffffffffffffffff1673ffffffffffffffffffffffffffffffffffffffff1681526020019081526020016000206002016004019080519060200190610d7792919061162f565b5080600160008060009054906101000a900473ffffffffffffffffffffffffffffffffffffffff1673ffffffffffffffffffffffffffffffffffffffff1673ffffffffffffffffffffffffffffffffffffffff1681526020019081526020016000206002016005019080519060200190610df292919061162f565b50505050505050565b6000826040516020018082805190602001908083835b602083101515610e365780518252602082019150602081019050602083039250610e11565b6001836020036101000a03801982511681845116808217855250505050505090500191505060405160208183030381529060405280519060200120600160003373ffffffffffffffffffffffffffffffffffffffff1673ffffffffffffffffffffffffffffffffffffffff1681526020019081526020016000206000016040516020018082805460018160011615610100020316600290048015610f115780601f10610eef576101008083540402835291820191610f11565b820191906000526020600020905b815481529060010190602001808311610efd575b5050915050604051602081830303815290604052805190602001201480156110655750816040516020018082805190602001908083835b602083101515610f6d5780518252602082019150602081019050602083039250610f48565b6001836020036101000a03801982511681845116808217855250505050505090500191505060405160208183030381529060405280519060200120600160003373ffffffffffffffffffffffffffffffffffffffff1673ffffffffffffffffffffffffffffffffffffffff16815260200190815260200160002060010160405160200180828054600181600116156101000203166002900480156110485780601f10611026576101008083540402835291820191611048565b820191906000526020600020905b815481529060010190602001808311611034575b505091505060405160208183030381529060405280519060200120145b151561107057600080fd5b336000806101000a81548173ffffffffffffffffffffffffffffffffffffffff021916908373ffffffffffffffffffffffffffffffffffffffff1602179055506001905092915050565b836003826040518082805190602001908083835b6020831015156110f357805182526020820191506020810190506020830392506110ce565b6001836020036101000a0380198251168184511680821785525050505050509050019150509081526020016040518091039020600001908051906020019061113c92919061162f565b50826003826040518082805190602001908083835b6020831015156111765780518252602082019150602081019050602083039250611151565b6001836020036101000a038019825116818451168082178552505050505050905001915050908152602001604051809103902060010190805190602001906111bf92919061162f565b50816003826040518082805190602001908083835b6020831015156111f957805182526020820191506020810190506020830392506111d4565b6001836020036101000a0380198251168184511680821785525050505050509050019150509081526020016040518091039020600201908051906020019061124292919061162f565b50600160008060009054906101000a900473ffffffffffffffffffffffffffffffffffffffff1673ffffffffffffffffffffffffffffffffffffffff1673ffffffffffffffffffffffffffffffffffffffff1681526020019081526020016000206008016003826040518082805190602001908083835b6020831015156112de57805182526020820191506020810190506020830392506112b9565b6001836020036101000a038019825116818451168082178552505050505050905001915050908152602001604051809103902090806001815401808255809150509060018203906000526020600020906003020160009091929091909150600082018160000190805460018160011615610100020316600290046113639291906114d8565b506001820181600101908054600181600116156101000203166002900461138b9291906114d8565b50600282018160020190805460018160011615610100020316600290046113b39291906114d8565b5050505050505050565b600083600160003373ffffffffffffffffffffffffffffffffffffffff1673ffffffffffffffffffffffffffffffffffffffff168152602001908152602001600020600001908051906020019061141592919061162f565b5082600160003373ffffffffffffffffffffffffffffffffffffffff1673ffffffffffffffffffffffffffffffffffffffff168152602001908152602001600020600101908051906020019061146c92919061162f565b50336000806101000a81548173ffffffffffffffffffffffffffffffffffffffff021916908373ffffffffffffffffffffffffffffffffffffffff1602179055506000809054906101000a900473ffffffffffffffffffffffffffffffffffffffff1690509392505050565b828054600181600116156101000203166002900490600052602060002090601f016020900481019282601f10611511578054855561154e565b8280016001018555821561154e57600052602060002091601f016020900482015b8281111561154d578254825591600101919060010190611532565b5b50905061155b91906116af565b5090565b82805482825590600052602060002090600302810192821561161e5760005260206000209160030282015b8281111561161d578282600082018160000190805460018160011615610100020316600290046115bb9291906114d8565b50600182018160010190805460018160011615610100020316600290046115e39291906114d8565b506002820181600201908054600181600116156101000203166002900461160b9291906114d8565b5050509160030191906003019061158a565b5b50905061162b91906116d4565b5090565b828054600181600116156101000203166002900490600052602060002090601f016020900481019282601f1061167057805160ff191683800117855561169e565b8280016001018555821561169e579182015b8281111561169d578251825591602001919060010190611682565b5b5090506116ab91906116af565b5090565b6116d191905b808211156116cd5760008160009055506001016116b5565b5090565b90565b61172091905b8082111561171c57600080820160006116f39190611723565b6001820160006117039190611723565b6002820160006117139190611723565b506003016116da565b5090565b90565b50805460018160011615610100020316600290046000825580601f106117495750611768565b601f01602090049060005260206000209081019061176791906116af565b5b50565b60006117778235612485565b905092915050565b600082601f830112151561179257600080fd5b81356117a56117a0826122dc565b6122af565b9150818183526020840193506020810190508360005b838110156117eb57813586016117d188826117f5565b8452602084019350602083019250506001810190506117bb565b5050505092915050565b600082601f830112151561180857600080fd5b813561181b61181682612304565b6122af565b9150808252602083016020830185838301111561183757600080fd5b611842838284612497565b50505092915050565b600082601f830112151561185e57600080fd5b813561187161186c82612330565b6122af565b9150808252602083016020830185838301111561188d57600080fd5b611898838284612497565b50505092915050565b6000806000606084860312156118b657600080fd5b60006118c48682870161176b565b935050602084013567ffffffffffffffff8111156118e157600080fd5b6118ed8682870161177f565b925050604084013567ffffffffffffffff81111561190a57600080fd5b6119168682870161184b565b9150509250925092565b60006020828403121561193257600080fd5b600082013567ffffffffffffffff81111561194c57600080fd5b6119588482850161184b565b91505092915050565b6000806040838503121561197457600080fd5b600083013567ffffffffffffffff81111561198e57600080fd5b61199a8582860161184b565b925050602083013567ffffffffffffffff8111156119b757600080fd5b6119c38582860161184b565b9150509250929050565b6000806000606084860312156119e257600080fd5b600084013567ffffffffffffffff8111156119fc57600080fd5b611a088682870161184b565b935050602084013567ffffffffffffffff811115611a2557600080fd5b611a318682870161184b565b9250506040611a428682870161176b565b9150509250925092565b60008060008060808587031215611a6257600080fd5b600085013567ffffffffffffffff811115611a7c57600080fd5b611a888782880161184b565b945050602085013567ffffffffffffffff811115611aa557600080fd5b611ab18782880161184b565b935050604085013567ffffffffffffffff811115611ace57600080fd5b611ada8782880161184b565b925050606085013567ffffffffffffffff811115611af757600080fd5b611b038782880161184b565b91505092959194509250565b60008060008060008060c08789031215611b2857600080fd5b600087013567ffffffffffffffff811115611b4257600080fd5b611b4e89828a0161184b565b965050602087013567ffffffffffffffff811115611b6b57600080fd5b611b7789828a0161184b565b955050604087013567ffffffffffffffff811115611b9457600080fd5b611ba089828a0161184b565b945050606087013567ffffffffffffffff811115611bbd57600080fd5b611bc989828a0161184b565b935050608087013567ffffffffffffffff811115611be657600080fd5b611bf289828a0161184b565b92505060a087013567ffffffffffffffff811115611c0f57600080fd5b611c1b89828a0161184b565b9150509295509295509295565b611c3181612447565b82525050565b6000611c42826123c4565b80845260208401935083602082028501611c5b85612369565b60005b84811015611c94578383038852611c76838351611f5c565b9250611c8182612413565b9150602088019750600181019050611c5e565b508196508694505050505092915050565b6000611cb0826123b9565b80845260208401935083602082028501611cc98561235c565b60005b84811015611d02578383038852611ce4838351611f5c565b9250611cef82612406565b9150602088019750600181019050611ccc565b508196508694505050505092915050565b6000611d1e826123cf565b80845260208401935083602082028501611d3785612376565b60005b84811015611d6f578383038852611d518383611fba565b9250611d5c82612420565b9150602088019750600181019050611d3a565b508196508694505050505092915050565b6000611d8b826123da565b80845260208401935083602082028501611da485612388565b60005b84811015611ddd578383038852611dbf838351612017565b9250611dca8261242d565b9150602088019750600181019050611da7565b508196508694505050505092915050565b6000611df9826123e5565b80845260208401935083602082028501611e1285612395565b60005b84811015611e4a578383038852611e2c8383612054565b9250611e378261243a565b9150602088019750600181019050611e15565b508196508694505050505092915050565b611e6481612459565b82525050565b6000611e75826123fb565b808452611e898160208601602086016124a6565b611e92816124d9565b602085010191505092915050565b6000611eab826123f0565b808452611ebf8160208601602086016124a6565b611ec8816124d9565b602085010191505092915050565b600081546001811660008114611ef35760018114611f1357611f54565b607f600283041680865260ff198316602087015260408601935050611f54565b60028204808652602086019550611f29856123a7565b60005b82811015611f4b57815481890152600182019150602081019050611f2c565b80880195505050505b505092915050565b60006060830160008301518482036000860152611f798282611ea0565b91505060208301518482036020860152611f938282611ea0565b91505060408301518482036040860152611fad8282611ea0565b9150508091505092915050565b60006060830160008084018583036000870152611fd78382611ed6565b925050600184018583036020870152611ff08382611ed6565b9250506002840185830360408701526120098382611ed6565b925050819250505092915050565b600060408301600083015161202f6000860182611c28565b50602083015184820360208601526120478282611ca5565b9150508091505092915050565b600060408301600080840154905061206b816124ea565b6120786000870182611c28565b5060018401858303602087015261208f8382611d13565b925050819250505092915050565b60006020820190506120b26000830184611c28565b92915050565b600060208201905081810360008301526120d28184611c37565b905092915050565b600060208201905081810360008301526120f48184611d13565b905092915050565b600060208201905081810360008301526121168184611d80565b905092915050565b600060208201905081810360008301526121388184611dee565b905092915050565b60006020820190506121556000830184611e5b565b92915050565b600060208201905081810360008301526121758184611e6a565b905092915050565b600060e0820190508181036000830152612197818a611e6a565b905081810360208301526121ab8189611e6a565b905081810360408301526121bf8188611e6a565b905081810360608301526121d38187611e6a565b905081810360808301526121e78186611e6a565b905081810360a08301526121fb8185611e6a565b905061220a60c0830184611c28565b98975050505050505050565b600060e0820190508181036000830152612230818a611ed6565b905081810360208301526122448189611ed6565b905081810360408301526122588188611ed6565b9050818103606083015261226c8187611ed6565b905081810360808301526122808186611ed6565b905081810360a08301526122948185611ed6565b90506122a360c0830184611c28565b98975050505050505050565b6000604051905081810181811067ffffffffffffffff821117156122d257600080fd5b8060405250919050565b600067ffffffffffffffff8211156122f357600080fd5b602082029050602081019050919050565b600067ffffffffffffffff82111561231b57600080fd5b601f19601f8301169050602081019050919050565b600067ffffffffffffffff82111561234757600080fd5b601f19601f8301169050602081019050919050565b6000602082019050919050565b6000602082019050919050565b60008160005260206000209050919050565b6000602082019050919050565b60008160005260206000209050919050565b60008160005260206000209050919050565b600081519050919050565b600081519050919050565b600081549050919050565b600081519050919050565b600081549050919050565b600081519050919050565b600081519050919050565b6000602082019050919050565b6000602082019050919050565b6000600182019050919050565b6000602082019050919050565b6000600182019050919050565b600061245282612465565b9050919050565b60008115159050919050565b600073ffffffffffffffffffffffffffffffffffffffff82169050919050565b600061249082612465565b9050919050565b82818337600083830152505050565b60005b838110156124c45780820151818401526020810190506124a9565b838111156124d3576000848401525b50505050565b6000601f19601f8301169050919050565b600060018204905091905056fea265627a7a72305820224b767287b98649129f73fafe1449873b9edc3db0fb3b90fcf67686b2dd65e76c6578706572696d656e74616cf50037",
  "source": "pragma solidity ^0.5.0;\r\npragma experimental ABIEncoderV2;\r\n\r\ncontract IdentitiesChain {\r\n    \r\n    struct Usuario{\r\n        string usuario;\r\n        string clave;\r\n        Cedula cedula;\r\n        Documento[] docs;\r\n        Permiso[] permisos;\r\n    }\r\n    \r\n    struct Cedula{\r\n        string nombre;\r\n        string fecha;\r\n        string sexo;\r\n        string ciudad;\r\n        string departamento;\r\n        string url;\r\n    }\r\n\r\n    struct Documento{\r\n        string nombre;\r\n        string url;\r\n        string hash;\r\n    }\r\n\r\n    struct Permiso{\r\n        address duenio;\r\n        Documento[] docs; \r\n    }\r\n    \r\n    address usuarioActivo;\r\n    mapping(address => Usuario) usuarios;\r\n    mapping(string => Permiso) permisos;\r\n    mapping(string => Documento) documentos;\r\n   \r\n   constructor() public {}\r\n   \r\n   function iniciarSesion(string memory _usuario, string memory _clave) public returns(bool){\r\n       require(keccak256(abi.encodePacked((usuarios[msg.sender].usuario))) == keccak256(abi.encodePacked((_usuario))) && keccak256(abi.encodePacked((usuarios[msg.sender].clave))) == keccak256(abi.encodePacked((_clave))) );\r\n       usuarioActivo = msg.sender;\r\n       return true;\r\n   }\r\n   \r\n   function nuevoUsuario(string memory _usuario, string memory _clave, address sender) public returns(address){\r\n\r\n        //Usuario memory user;\r\n        //user = usuarios[msg.sender];\r\n        usuarios[msg.sender].usuario = _usuario;\r\n        usuarios[msg.sender].clave = _clave;\r\n        usuarioActivo = msg.sender;\r\n        return usuarioActivo;\r\n    }\r\n    \r\n    function getUsuario() public view returns(string memory) {\r\n        return usuarios[msg.sender].usuario;\r\n    }\r\n    \r\n    function nuevaCedula(string memory _nombre, string memory _fecha, string memory _sexo, string memory _ciudad, string memory _departamento, string memory _url) public {\r\n\r\n        //Cedula memory _cedula = usuarios[usuarioActivo].cedula;\r\n        usuarios[usuarioActivo].cedula.nombre = _nombre;\r\n        usuarios[usuarioActivo].cedula.fecha = _fecha;\r\n        usuarios[usuarioActivo].cedula.sexo = _sexo;\r\n        usuarios[usuarioActivo].cedula.ciudad = _ciudad;\r\n        usuarios[usuarioActivo].cedula.departamento = _departamento;\r\n        usuarios[usuarioActivo].cedula.url = _url;\r\n    }\r\n\r\n    event Cedulita(\r\n        string nombre,\r\n        string fecha,\r\n        string sexo,\r\n        string ciudad,\r\n        string departamento,\r\n        string url,\r\n        address adr\r\n    );\r\n    \r\n    function getCedula(string memory dir) public returns(string memory, string memory, string memory, string memory, string memory, string memory, address){\r\n        //Cedula memory _cedula = usuarios[usuarioActivo].cedula;\r\n        emit Cedulita(usuarios[usuarioActivo].cedula.nombre, usuarios[usuarioActivo].cedula.fecha, usuarios[usuarioActivo].cedula.sexo,\r\n         usuarios[usuarioActivo].cedula.ciudad, usuarios[usuarioActivo].cedula.departamento, usuarios[usuarioActivo].cedula.url, usuarioActivo);\r\n    }\r\n    \r\n    function nuevoDocumento(string memory _nombre, string memory _url, string memory _hash, string memory _idDoc) public {\r\n        documentos[_idDoc].nombre = _nombre;\r\n        documentos[_idDoc].url = _url;\r\n        documentos[_idDoc].hash = _hash;\r\n        usuarios[usuarioActivo].docs.push(documentos[_idDoc]);\r\n    }\r\n    \r\n    event Documentos(\r\n        Documento[] docs\r\n    );\r\n    \r\n    function getDocumentos() public returns(Documento[] memory misDocs){\r\n        emit Documentos(usuarios[usuarioActivo].docs);\r\n    }\r\n\r\n    function compartir(address _destinatario, string[] memory _idDocs, string memory idPermiso) public {\r\n        permisos[idPermiso].duenio = msg.sender;\r\n        uint tam = _idDocs.length;\r\n        for(uint i=0; i<tam; i++){\r\n            permisos[idPermiso].docs.push(documentos[_idDocs[i]]);   \r\n        }\r\n        usuarios[_destinatario].permisos.push(permisos[idPermiso]);\r\n    }\r\n    \r\n    event Permisos(\r\n        Permiso[] perms    \r\n    );\r\n    \r\n    function getPermisos() public returns(Permiso[] memory p){\r\n        emit Permisos(usuarios[usuarioActivo].permisos);\r\n    }\r\n   \r\n}",
  "sourcePath": "D:/Blockchain/aplicacionAngular/contracts/IdentitiesChain.sol",
  "compiler": {
    "name": "solc",
    "version": "0.5.0+commit.1d4f565a.Emscripten.clang"
  },
  "schemaVersion": "3.0.9",
  "updatedAt": "2019-05-28T20:52:19.469Z",
  "devdoc": {
    "methods": {}
  },
  "userdoc": {
    "methods": {}
  }
}