{
  "contractName": "IdentitiesChain",
  "abi": [
    {
      "inputs": [],
      "payable": false,
      "stateMutability": "nonpayable",
      "type": "constructor"
    },
    {
      "constant": false,
      "inputs": [
        {
          "name": "_usuario",
          "type": "string"
        },
        {
          "name": "_clave",
          "type": "string"
        }
      ],
      "name": "iniciarSesion",
      "outputs": [
        {
          "name": "",
          "type": "bool"
        }
      ],
      "payable": false,
      "stateMutability": "nonpayable",
      "type": "function"
    },
    {
      "constant": false,
      "inputs": [
        {
          "name": "_usuario",
          "type": "string"
        },
        {
          "name": "_clave",
          "type": "string"
        },
        {
          "name": "sender",
          "type": "address"
        }
      ],
      "name": "nuevoUsuario",
      "outputs": [
        {
          "name": "",
          "type": "address"
        }
      ],
      "payable": false,
      "stateMutability": "nonpayable",
      "type": "function"
    },
    {
      "constant": true,
      "inputs": [],
      "name": "getUsuario",
      "outputs": [
        {
          "name": "",
          "type": "string"
        }
      ],
      "payable": false,
      "stateMutability": "view",
      "type": "function"
    },
    {
      "constant": false,
      "inputs": [
        {
          "name": "_nombre",
          "type": "string"
        },
        {
          "name": "_fecha",
          "type": "string"
        },
        {
          "name": "_sexo",
          "type": "string"
        },
        {
          "name": "_ciudad",
          "type": "string"
        },
        {
          "name": "_departamento",
          "type": "string"
        },
        {
          "name": "_url",
          "type": "string"
        }
      ],
      "name": "nuevaCedula",
      "outputs": [],
      "payable": false,
      "stateMutability": "nonpayable",
      "type": "function"
    },
    {
      "constant": true,
      "inputs": [],
      "name": "getCedula",
      "outputs": [
        {
          "name": "",
          "type": "string"
        },
        {
          "name": "",
          "type": "string"
        },
        {
          "name": "",
          "type": "string"
        },
        {
          "name": "",
          "type": "string"
        },
        {
          "name": "",
          "type": "string"
        },
        {
          "name": "",
          "type": "string"
        },
        {
          "name": "",
          "type": "address"
        }
      ],
      "payable": false,
      "stateMutability": "view",
      "type": "function"
    },
    {
      "constant": false,
      "inputs": [
        {
          "name": "_destinatario",
          "type": "address"
        },
        {
          "name": "_docs",
          "type": "string[]"
        },
        {
          "name": "idPermiso",
          "type": "string"
        }
      ],
      "name": "compartir",
      "outputs": [],
      "payable": false,
      "stateMutability": "nonpayable",
      "type": "function"
    }
  ],
  "bytecode": "0x608060405234801561001057600080fd5b50611bac806100206000396000f3fe608060405260043610610078576000357c0100000000000000000000000000000000000000000000000000000000900463ffffffff16806349bc8d181461007d5780636a738513146100a8578063aa31db82146100d1578063b27cabdd146100fa578063c6ce03d61461012b578063ea877d0514610168575b600080fd5b34801561008957600080fd5b506100926101a5565b60405161009f919061195c565b60405180910390f35b3480156100b457600080fd5b506100cf60048036036100ca919081019061164f565b610287565b005b3480156100dd57600080fd5b506100f860048036036100f391908101906117b9565b610515565b005b34801561010657600080fd5b5061010f6107ff565b604051610122979695949392919061197e565b60405180910390f35b34801561013757600080fd5b50610152600480360361014d91908101906116ce565b610e4f565b60405161015f9190611941565b60405180910390f35b34801561017457600080fd5b5061018f600480360361018a919081019061173a565b61110e565b60405161019c9190611926565b60405180910390f35b6060600160003373ffffffffffffffffffffffffffffffffffffffff1673ffffffffffffffffffffffffffffffffffffffff1681526020019081526020016000206000018054600181600116156101000203166002900480601f01602080910402602001604051908101604052809291908181526020018280546001816001161561010002031660029004801561027d5780601f106102525761010080835404028352916020019161027d565b820191906000526020600020905b81548152906001019060200180831161026057829003601f168201915b5050505050905090565b336002826040518082805190602001908083835b6020831015156102c0578051825260208201915060208101905060208303925061029b565b6001836020036101000a038019825116818451168082178552505050505050905001915050908152602001604051809103902060000160006101000a81548173ffffffffffffffffffffffffffffffffffffffff021916908373ffffffffffffffffffffffffffffffffffffffff160217905550816002826040518082805190602001908083835b60208310151561036d5780518252602082019150602081019050602083039250610348565b6001836020036101000a038019825116818451168082178552505050505050905001915050908152602001604051809103902060010190805190602001906103b6929190611229565b50600160008473ffffffffffffffffffffffffffffffffffffffff1673ffffffffffffffffffffffffffffffffffffffff1681526020019081526020016000206008016002826040518082805190602001908083835b602083101515610431578051825260208201915060208101905060208303925061040c565b6001836020036101000a0380198251168184511680821785525050505050509050019150509081526020016040518091039020908060018154018082558091505090600182039060005260206000209060020201600090919290919091506000820160009054906101000a900473ffffffffffffffffffffffffffffffffffffffff168160000160006101000a81548173ffffffffffffffffffffffffffffffffffffffff021916908373ffffffffffffffffffffffffffffffffffffffff160217905550600182018160010190805461050c929190611289565b50505050505050565b85600160008060009054906101000a900473ffffffffffffffffffffffffffffffffffffffff1673ffffffffffffffffffffffffffffffffffffffff1673ffffffffffffffffffffffffffffffffffffffff168152602001908152602001600020600201600001908051906020019061058f9291906112f9565b5084600160008060009054906101000a900473ffffffffffffffffffffffffffffffffffffffff1673ffffffffffffffffffffffffffffffffffffffff1673ffffffffffffffffffffffffffffffffffffffff168152602001908152602001600020600201600101908051906020019061060a9291906112f9565b5083600160008060009054906101000a900473ffffffffffffffffffffffffffffffffffffffff1673ffffffffffffffffffffffffffffffffffffffff1673ffffffffffffffffffffffffffffffffffffffff16815260200190815260200160002060020160020190805190602001906106859291906112f9565b5082600160008060009054906101000a900473ffffffffffffffffffffffffffffffffffffffff1673ffffffffffffffffffffffffffffffffffffffff1673ffffffffffffffffffffffffffffffffffffffff16815260200190815260200160002060020160030190805190602001906107009291906112f9565b5081600160008060009054906101000a900473ffffffffffffffffffffffffffffffffffffffff1673ffffffffffffffffffffffffffffffffffffffff1673ffffffffffffffffffffffffffffffffffffffff168152602001908152602001600020600201600401908051906020019061077b9291906112f9565b5080600160008060009054906101000a900473ffffffffffffffffffffffffffffffffffffffff1673ffffffffffffffffffffffffffffffffffffffff1673ffffffffffffffffffffffffffffffffffffffff16815260200190815260200160002060020160050190805190602001906107f69291906112f9565b50505050505050565b6060806060806060806000600160008060009054906101000a900473ffffffffffffffffffffffffffffffffffffffff1673ffffffffffffffffffffffffffffffffffffffff1673ffffffffffffffffffffffffffffffffffffffff168152602001908152602001600020600201600001600160008060009054906101000a900473ffffffffffffffffffffffffffffffffffffffff1673ffffffffffffffffffffffffffffffffffffffff1673ffffffffffffffffffffffffffffffffffffffff168152602001908152602001600020600201600101600160008060009054906101000a900473ffffffffffffffffffffffffffffffffffffffff1673ffffffffffffffffffffffffffffffffffffffff1673ffffffffffffffffffffffffffffffffffffffff168152602001908152602001600020600201600201600160008060009054906101000a900473ffffffffffffffffffffffffffffffffffffffff1673ffffffffffffffffffffffffffffffffffffffff1673ffffffffffffffffffffffffffffffffffffffff168152602001908152602001600020600201600301600160008060009054906101000a900473ffffffffffffffffffffffffffffffffffffffff1673ffffffffffffffffffffffffffffffffffffffff1673ffffffffffffffffffffffffffffffffffffffff168152602001908152602001600020600201600401600160008060009054906101000a900473ffffffffffffffffffffffffffffffffffffffff1673ffffffffffffffffffffffffffffffffffffffff1673ffffffffffffffffffffffffffffffffffffffff1681526020019081526020016000206002016005016000809054906101000a900473ffffffffffffffffffffffffffffffffffffffff16868054600181600116156101000203166002900480601f016020809104026020016040519081016040528092919081815260200182805460018160011615610100020316600290048015610b255780601f10610afa57610100808354040283529160200191610b25565b820191906000526020600020905b815481529060010190602001808311610b0857829003601f168201915b50505050509650858054600181600116156101000203166002900480601f016020809104026020016040519081016040528092919081815260200182805460018160011615610100020316600290048015610bc15780601f10610b9657610100808354040283529160200191610bc1565b820191906000526020600020905b815481529060010190602001808311610ba457829003601f168201915b50505050509550848054600181600116156101000203166002900480601f016020809104026020016040519081016040528092919081815260200182805460018160011615610100020316600290048015610c5d5780601f10610c3257610100808354040283529160200191610c5d565b820191906000526020600020905b815481529060010190602001808311610c4057829003601f168201915b50505050509450838054600181600116156101000203166002900480601f016020809104026020016040519081016040528092919081815260200182805460018160011615610100020316600290048015610cf95780601f10610cce57610100808354040283529160200191610cf9565b820191906000526020600020905b815481529060010190602001808311610cdc57829003601f168201915b50505050509350828054600181600116156101000203166002900480601f016020809104026020016040519081016040528092919081815260200182805460018160011615610100020316600290048015610d955780601f10610d6a57610100808354040283529160200191610d95565b820191906000526020600020905b815481529060010190602001808311610d7857829003601f168201915b50505050509250818054600181600116156101000203166002900480601f016020809104026020016040519081016040528092919081815260200182805460018160011615610100020316600290048015610e315780601f10610e0657610100808354040283529160200191610e31565b820191906000526020600020905b815481529060010190602001808311610e1457829003601f168201915b50505050509150965096509650965096509650965090919293949596565b6000826040516020018082805190602001908083835b602083101515610e8a5780518252602082019150602081019050602083039250610e65565b6001836020036101000a03801982511681845116808217855250505050505090500191505060405160208183030381529060405280519060200120600160003373ffffffffffffffffffffffffffffffffffffffff1673ffffffffffffffffffffffffffffffffffffffff1681526020019081526020016000206000016040516020018082805460018160011615610100020316600290048015610f655780601f10610f43576101008083540402835291820191610f65565b820191906000526020600020905b815481529060010190602001808311610f51575b5050915050604051602081830303815290604052805190602001201480156110b95750816040516020018082805190602001908083835b602083101515610fc15780518252602082019150602081019050602083039250610f9c565b6001836020036101000a03801982511681845116808217855250505050505090500191505060405160208183030381529060405280519060200120600160003373ffffffffffffffffffffffffffffffffffffffff1673ffffffffffffffffffffffffffffffffffffffff168152602001908152602001600020600101604051602001808280546001816001161561010002031660029004801561109c5780601f1061107a57610100808354040283529182019161109c565b820191906000526020600020905b815481529060010190602001808311611088575b505091505060405160208183030381529060405280519060200120145b15156110c457600080fd5b336000806101000a81548173ffffffffffffffffffffffffffffffffffffffff021916908373ffffffffffffffffffffffffffffffffffffffff1602179055506001905092915050565b600083600160008473ffffffffffffffffffffffffffffffffffffffff1673ffffffffffffffffffffffffffffffffffffffff16815260200190815260200160002060000190805190602001906111669291906112f9565b5082600160008473ffffffffffffffffffffffffffffffffffffffff1673ffffffffffffffffffffffffffffffffffffffff16815260200190815260200160002060010190805190602001906111bd9291906112f9565b50816000806101000a81548173ffffffffffffffffffffffffffffffffffffffff021916908373ffffffffffffffffffffffffffffffffffffffff1602179055506000809054906101000a900473ffffffffffffffffffffffffffffffffffffffff1690509392505050565b828054828255906000526020600020908101928215611278579160200282015b82811115611277578251829080519060200190611267929190611379565b5091602001919060010190611249565b5b50905061128591906113f9565b5090565b8280548282559060005260206000209081019282156112e85760005260206000209182015b828111156112e757828290805460018160011615610100020316600290046112d7929190611425565b50916001019190600101906112ae565b5b5090506112f591906113f9565b5090565b828054600181600116156101000203166002900490600052602060002090601f016020900481019282601f1061133a57805160ff1916838001178555611368565b82800160010185558215611368579182015b8281111561136757825182559160200191906001019061134c565b5b50905061137591906114ac565b5090565b828054600181600116156101000203166002900490600052602060002090601f016020900481019282601f106113ba57805160ff19168380011785556113e8565b828001600101855582156113e8579182015b828111156113e75782518255916020019190600101906113cc565b5b5090506113f591906114ac565b5090565b61142291905b8082111561141e576000818161141591906114d1565b506001016113ff565b5090565b90565b828054600181600116156101000203166002900490600052602060002090601f016020900481019282601f1061145e578054855561149b565b8280016001018555821561149b57600052602060002091601f016020900482015b8281111561149a57825482559160010191906001019061147f565b5b5090506114a891906114ac565b5090565b6114ce91905b808211156114ca5760008160009055506001016114b2565b5090565b90565b50805460018160011615610100020316600290046000825580601f106114f75750611516565b601f01602090049060005260206000209081019061151591906114ac565b5b50565b60006115258235611b0d565b905092915050565b600082601f830112151561154057600080fd5b813561155361154e82611a44565b611a17565b9150818183526020840193506020810190508360005b83811015611599578135860161157f88826115a3565b845260208401935060208301925050600181019050611569565b5050505092915050565b600082601f83011215156115b657600080fd5b81356115c96115c482611a6c565b611a17565b915080825260208301602083018583830111156115e557600080fd5b6115f0838284611b1f565b50505092915050565b600082601f830112151561160c57600080fd5b813561161f61161a82611a98565b611a17565b9150808252602083016020830185838301111561163b57600080fd5b611646838284611b1f565b50505092915050565b60008060006060848603121561166457600080fd5b600061167286828701611519565b935050602084013567ffffffffffffffff81111561168f57600080fd5b61169b8682870161152d565b925050604084013567ffffffffffffffff8111156116b857600080fd5b6116c4868287016115f9565b9150509250925092565b600080604083850312156116e157600080fd5b600083013567ffffffffffffffff8111156116fb57600080fd5b611707858286016115f9565b925050602083013567ffffffffffffffff81111561172457600080fd5b611730858286016115f9565b9150509250929050565b60008060006060848603121561174f57600080fd5b600084013567ffffffffffffffff81111561176957600080fd5b611775868287016115f9565b935050602084013567ffffffffffffffff81111561179257600080fd5b61179e868287016115f9565b92505060406117af86828701611519565b9150509250925092565b60008060008060008060c087890312156117d257600080fd5b600087013567ffffffffffffffff8111156117ec57600080fd5b6117f889828a016115f9565b965050602087013567ffffffffffffffff81111561181557600080fd5b61182189828a016115f9565b955050604087013567ffffffffffffffff81111561183e57600080fd5b61184a89828a016115f9565b945050606087013567ffffffffffffffff81111561186757600080fd5b61187389828a016115f9565b935050608087013567ffffffffffffffff81111561189057600080fd5b61189c89828a016115f9565b92505060a087013567ffffffffffffffff8111156118b957600080fd5b6118c589828a016115f9565b9150509295509295509295565b6118db81611acf565b82525050565b6118ea81611ae1565b82525050565b60006118fb82611ac4565b80845261190f816020860160208601611b2e565b61191881611b61565b602085010191505092915050565b600060208201905061193b60008301846118d2565b92915050565b600060208201905061195660008301846118e1565b92915050565b6000602082019050818103600083015261197681846118f0565b905092915050565b600060e0820190508181036000830152611998818a6118f0565b905081810360208301526119ac81896118f0565b905081810360408301526119c081886118f0565b905081810360608301526119d481876118f0565b905081810360808301526119e881866118f0565b905081810360a08301526119fc81856118f0565b9050611a0b60c08301846118d2565b98975050505050505050565b6000604051905081810181811067ffffffffffffffff82111715611a3a57600080fd5b8060405250919050565b600067ffffffffffffffff821115611a5b57600080fd5b602082029050602081019050919050565b600067ffffffffffffffff821115611a8357600080fd5b601f19601f8301169050602081019050919050565b600067ffffffffffffffff821115611aaf57600080fd5b601f19601f8301169050602081019050919050565b600081519050919050565b6000611ada82611aed565b9050919050565b60008115159050919050565b600073ffffffffffffffffffffffffffffffffffffffff82169050919050565b6000611b1882611aed565b9050919050565b82818337600083830152505050565b60005b83811015611b4c578082015181840152602081019050611b31565b83811115611b5b576000848401525b50505050565b6000601f19601f830116905091905056fea265627a7a72305820cb80e0c2c354e63a7624da9d07b2c36b5225b5b4977d55a278fd5d51a02316e46c6578706572696d656e74616cf50037",
  "source": "pragma solidity ^0.5.0;\r\npragma experimental ABIEncoderV2;\r\n\r\ncontract IdentitiesChain {\r\n    \r\n    struct Usuario{\r\n        string usuario;\r\n        string clave;\r\n        Cedula cedula;\r\n        Permiso[] permisos;\r\n    }\r\n    \r\n    struct Cedula{\r\n        string nombre;\r\n        string fecha;\r\n        string sexo;\r\n        string ciudad;\r\n        string departamento;\r\n        string url;\r\n    }\r\n\r\n    struct Documento{\r\n        string nombre;\r\n        string url;\r\n    }\r\n\r\n    struct Permiso{\r\n        address duenio;\r\n        string[] docs; \r\n    }\r\n    \r\n    address usuarioActivo;\r\n    mapping(address => Usuario) usuarios;\r\n    mapping(string => Permiso) permisos;\r\n   \r\n   constructor() public {}\r\n   \r\n   function iniciarSesion(string memory _usuario, string memory _clave) public returns(bool){\r\n       require(keccak256(abi.encodePacked((usuarios[msg.sender].usuario))) == keccak256(abi.encodePacked((_usuario))) && keccak256(abi.encodePacked((usuarios[msg.sender].clave))) == keccak256(abi.encodePacked((_clave))) );\r\n       usuarioActivo = msg.sender;\r\n       return true;\r\n   }\r\n   \r\n   function nuevoUsuario(string memory _usuario, string memory _clave, address sender) public returns(address){\r\n\r\n        //Usuario memory user;\r\n        //user = usuarios[msg.sender];\r\n        usuarios[sender].usuario = _usuario;\r\n        usuarios[sender].clave = _clave;\r\n        usuarioActivo = sender;\r\n        return usuarioActivo;\r\n    }\r\n    \r\n    function getUsuario() public view returns(string memory) {\r\n        return usuarios[msg.sender].usuario;\r\n    }\r\n    \r\n    function nuevaCedula(string memory _nombre, string memory _fecha, string memory _sexo, string memory _ciudad, string memory _departamento, string memory _url) public {\r\n\r\n        //Cedula memory _cedula = usuarios[usuarioActivo].cedula;\r\n        usuarios[usuarioActivo].cedula.nombre = _nombre;\r\n        usuarios[usuarioActivo].cedula.fecha = _fecha;\r\n        usuarios[usuarioActivo].cedula.sexo = _sexo;\r\n        usuarios[usuarioActivo].cedula.ciudad = _ciudad;\r\n        usuarios[usuarioActivo].cedula.departamento = _departamento;\r\n        usuarios[usuarioActivo].cedula.url = _url;\r\n    }\r\n    \r\n    function getCedula() public view returns(string memory, string memory, string memory, string memory, string memory, string memory, address){\r\n        //Cedula memory _cedula = usuarios[usuarioActivo].cedula;\r\n        return (usuarios[usuarioActivo].cedula.nombre, usuarios[usuarioActivo].cedula.fecha, usuarios[usuarioActivo].cedula.sexo,\r\n         usuarios[usuarioActivo].cedula.ciudad, usuarios[usuarioActivo].cedula.departamento, usuarios[usuarioActivo].cedula.url, usuarioActivo);\r\n    }\r\n\r\n    function compartir(address _destinatario, string[] memory _docs, string memory idPermiso) public {\r\n        permisos[idPermiso].duenio = msg.sender;\r\n        permisos[idPermiso].docs = _docs;\r\n        usuarios[_destinatario].permisos.push(permisos[idPermiso]);\r\n    }\r\n   \r\n}",
  "sourcePath": "D:/Blockchain/aplicacionAngular/contracts/IdentitiesChain.sol",
  "compiler": {
    "name": "solc",
    "version": "0.5.0+commit.1d4f565a.Emscripten.clang"
  },
  "schemaVersion": "3.0.9",
  "updatedAt": "2019-05-15T00:32:53.464Z",
  "devdoc": {
    "methods": {}
  },
  "userdoc": {
    "methods": {}
  }
}