{
  "contractName": "IdentitiesChain",
  "abi": [
    {
      "inputs": [],
      "payable": false,
      "stateMutability": "nonpayable",
      "type": "constructor"
    },
    {
      "constant": false,
      "inputs": [
        {
          "name": "_usuario",
          "type": "string"
        },
        {
          "name": "_clave",
          "type": "string"
        }
      ],
      "name": "iniciarSesion",
      "outputs": [
        {
          "name": "",
          "type": "bool"
        }
      ],
      "payable": false,
      "stateMutability": "nonpayable",
      "type": "function"
    },
    {
      "constant": false,
      "inputs": [
        {
          "name": "_usuario",
          "type": "string"
        },
        {
          "name": "_clave",
          "type": "string"
        }
      ],
      "name": "nuevoUsuario",
      "outputs": [],
      "payable": false,
      "stateMutability": "nonpayable",
      "type": "function"
    },
    {
      "constant": true,
      "inputs": [],
      "name": "getUsuario",
      "outputs": [
        {
          "name": "",
          "type": "string"
        }
      ],
      "payable": false,
      "stateMutability": "view",
      "type": "function"
    },
    {
      "constant": false,
      "inputs": [
        {
          "name": "_nombre",
          "type": "string"
        },
        {
          "name": "_gs",
          "type": "string"
        },
        {
          "name": "_rh",
          "type": "string"
        },
        {
          "name": "_fecha",
          "type": "uint256"
        },
        {
          "name": "_sexo",
          "type": "string"
        },
        {
          "name": "_ciudad",
          "type": "string"
        },
        {
          "name": "_departamento",
          "type": "string"
        }
      ],
      "name": "nuevaCedula",
      "outputs": [],
      "payable": false,
      "stateMutability": "nonpayable",
      "type": "function"
    },
    {
      "constant": true,
      "inputs": [],
      "name": "getCedula",
      "outputs": [
        {
          "name": "",
          "type": "string"
        },
        {
          "name": "",
          "type": "string"
        },
        {
          "name": "",
          "type": "string"
        },
        {
          "name": "",
          "type": "uint256"
        },
        {
          "name": "",
          "type": "string"
        },
        {
          "name": "",
          "type": "string"
        },
        {
          "name": "",
          "type": "string"
        },
        {
          "name": "",
          "type": "address"
        }
      ],
      "payable": false,
      "stateMutability": "view",
      "type": "function"
    }
  ],
  "bytecode": "0x608060405234801561001057600080fd5b50611df8806100206000396000f3fe60806040526004361061006d576000357c0100000000000000000000000000000000000000000000000000000000900463ffffffff16806336d3bd9e1461007257806347df3d3c146101d157806349bc8d1814610596578063b27cabdd14610626578063c6ce03d61461090c575b600080fd5b34801561007e57600080fd5b506101cf6004803603604081101561009557600080fd5b81019080803590602001906401000000008111156100b257600080fd5b8201836020820111156100c457600080fd5b803590602001918460018302840111640100000000831117156100e657600080fd5b91908080601f016020809104026020016040519081016040528093929190818152602001838380828437600081840152601f19601f8201169050808301925050505050505091929192908035906020019064010000000081111561014957600080fd5b82018360208201111561015b57600080fd5b8035906020019184600183028401116401000000008311171561017d57600080fd5b91908080601f016020809104026020016040519081016040528093929190818152602001838380828437600081840152601f19601f820116905080830192505050505050509192919290505050610a83565b005b3480156101dd57600080fd5b50610594600480360360e08110156101f457600080fd5b810190808035906020019064010000000081111561021157600080fd5b82018360208201111561022357600080fd5b8035906020019184600183028401116401000000008311171561024557600080fd5b91908080601f016020809104026020016040519081016040528093929190818152602001838380828437600081840152601f19601f820116905080830192505050505050509192919290803590602001906401000000008111156102a857600080fd5b8201836020820111156102ba57600080fd5b803590602001918460018302840111640100000000831117156102dc57600080fd5b91908080601f016020809104026020016040519081016040528093929190818152602001838380828437600081840152601f19601f8201169050808301925050505050505091929192908035906020019064010000000081111561033f57600080fd5b82018360208201111561035157600080fd5b8035906020019184600183028401116401000000008311171561037357600080fd5b91908080601f016020809104026020016040519081016040528093929190818152602001838380828437600081840152601f19601f82011690508083019250505050505050919291929080359060200190929190803590602001906401000000008111156103e057600080fd5b8201836020820111156103f257600080fd5b8035906020019184600183028401116401000000008311171561041457600080fd5b91908080601f016020809104026020016040519081016040528093929190818152602001838380828437600081840152601f19601f8201169050808301925050505050505091929192908035906020019064010000000081111561047757600080fd5b82018360208201111561048957600080fd5b803590602001918460018302840111640100000000831117156104ab57600080fd5b91908080601f016020809104026020016040519081016040528093929190818152602001838380828437600081840152601f19601f8201169050808301925050505050505091929192908035906020019064010000000081111561050e57600080fd5b82018360208201111561052057600080fd5b8035906020019184600183028401116401000000008311171561054257600080fd5b91908080601f016020809104026020016040519081016040528093929190818152602001838380828437600081840152601f19601f82011690508083019250505050505050919291929050505061101e565b005b3480156105a257600080fd5b506105ab6114b7565b6040518080602001828103825283818151815260200191508051906020019080838360005b838110156105eb5780820151818401526020810190506105d0565b50505050905090810190601f1680156106185780820380516001836020036101000a031916815260200191505b509250505060405180910390f35b34801561063257600080fd5b5061063b611599565b604051808060200180602001806020018981526020018060200180602001806020018873ffffffffffffffffffffffffffffffffffffffff1673ffffffffffffffffffffffffffffffffffffffff16815260200187810387528f818151815260200191508051906020019080838360005b838110156106c75780820151818401526020810190506106ac565b50505050905090810190601f1680156106f45780820380516001836020036101000a031916815260200191505b5087810386528e818151815260200191508051906020019080838360005b8381101561072d578082015181840152602081019050610712565b50505050905090810190601f16801561075a5780820380516001836020036101000a031916815260200191505b5087810385528d818151815260200191508051906020019080838360005b83811015610793578082015181840152602081019050610778565b50505050905090810190601f1680156107c05780820380516001836020036101000a031916815260200191505b5087810384528b818151815260200191508051906020019080838360005b838110156107f95780820151818401526020810190506107de565b50505050905090810190601f1680156108265780820380516001836020036101000a031916815260200191505b5087810383528a818151815260200191508051906020019080838360005b8381101561085f578082015181840152602081019050610844565b50505050905090810190601f16801561088c5780820380516001836020036101000a031916815260200191505b50878103825289818151815260200191508051906020019080838360005b838110156108c55780820151818401526020810190506108aa565b50505050905090810190601f1680156108f25780820380516001836020036101000a031916815260200191505b509e50505050505050505050505050505060405180910390f35b34801561091857600080fd5b50610a696004803603604081101561092f57600080fd5b810190808035906020019064010000000081111561094c57600080fd5b82018360208201111561095e57600080fd5b8035906020019184600183028401116401000000008311171561098057600080fd5b91908080601f016020809104026020016040519081016040528093929190818152602001838380828437600081840152601f19601f820116905080830192505050505050509192919290803590602001906401000000008111156109e357600080fd5b8201836020820111156109f557600080fd5b80359060200191846001830284011164010000000083111715610a1757600080fd5b91908080601f016020809104026020016040519081016040528093929190818152602001838380828437600081840152601f19601f820116905080830192505050505050509192919290505050611a68565b604051808215151515815260200191505060405180910390f35b610a8b611d27565b600160003373ffffffffffffffffffffffffffffffffffffffff1673ffffffffffffffffffffffffffffffffffffffff16815260200190815260200160002060606040519081016040529081600082018054600181600116156101000203166002900480601f016020809104026020016040519081016040528092919081815260200182805460018160011615610100020316600290048015610b6f5780601f10610b4457610100808354040283529160200191610b6f565b820191906000526020600020905b815481529060010190602001808311610b5257829003601f168201915b50505050508152602001600182018054600181600116156101000203166002900480601f016020809104026020016040519081016040528092919081815260200182805460018160011615610100020316600290048015610c115780601f10610be657610100808354040283529160200191610c11565b820191906000526020600020905b815481529060010190602001808311610bf457829003601f168201915b505050505081526020016002820160e06040519081016040529081600082018054600181600116156101000203166002900480601f016020809104026020016040519081016040528092919081815260200182805460018160011615610100020316600290048015610cc45780601f10610c9957610100808354040283529160200191610cc4565b820191906000526020600020905b815481529060010190602001808311610ca757829003601f168201915b50505050508152602001600182018054600181600116156101000203166002900480601f016020809104026020016040519081016040528092919081815260200182805460018160011615610100020316600290048015610d665780601f10610d3b57610100808354040283529160200191610d66565b820191906000526020600020905b815481529060010190602001808311610d4957829003601f168201915b50505050508152602001600282018054600181600116156101000203166002900480601f016020809104026020016040519081016040528092919081815260200182805460018160011615610100020316600290048015610e085780601f10610ddd57610100808354040283529160200191610e08565b820191906000526020600020905b815481529060010190602001808311610deb57829003601f168201915b5050505050815260200160038201548152602001600482018054600181600116156101000203166002900480601f016020809104026020016040519081016040528092919081815260200182805460018160011615610100020316600290048015610eb45780601f10610e8957610100808354040283529160200191610eb4565b820191906000526020600020905b815481529060010190602001808311610e9757829003601f168201915b50505050508152602001600582018054600181600116156101000203166002900480601f016020809104026020016040519081016040528092919081815260200182805460018160011615610100020316600290048015610f565780601f10610f2b57610100808354040283529160200191610f56565b820191906000526020600020905b815481529060010190602001808311610f3957829003601f168201915b50505050508152602001600682018054600181600116156101000203166002900480601f016020809104026020016040519081016040528092919081815260200182805460018160011615610100020316600290048015610ff85780601f10610fcd57610100808354040283529160200191610ff8565b820191906000526020600020905b815481529060010190602001808311610fdb57829003601f168201915b505050505081525050815250509050828160000181905250818160200181905250505050565b611026611d50565b600160008060009054906101000a900473ffffffffffffffffffffffffffffffffffffffff1673ffffffffffffffffffffffffffffffffffffffff1673ffffffffffffffffffffffffffffffffffffffff16815260200190815260200160002060020160e06040519081016040529081600082018054600181600116156101000203166002900480601f01602080910402602001604051908101604052809291908181526020018280546001816001161561010002031660029004801561112e5780601f106111035761010080835404028352916020019161112e565b820191906000526020600020905b81548152906001019060200180831161111157829003601f168201915b50505050508152602001600182018054600181600116156101000203166002900480601f0160208091040260200160405190810160405280929190818152602001828054600181600116156101000203166002900480156111d05780601f106111a5576101008083540402835291602001916111d0565b820191906000526020600020905b8154815290600101906020018083116111b357829003601f168201915b50505050508152602001600282018054600181600116156101000203166002900480601f0160208091040260200160405190810160405280929190818152602001828054600181600116156101000203166002900480156112725780601f1061124757610100808354040283529160200191611272565b820191906000526020600020905b81548152906001019060200180831161125557829003601f168201915b5050505050815260200160038201548152602001600482018054600181600116156101000203166002900480601f01602080910402602001604051908101604052809291908181526020018280546001816001161561010002031660029004801561131e5780601f106112f35761010080835404028352916020019161131e565b820191906000526020600020905b81548152906001019060200180831161130157829003601f168201915b50505050508152602001600582018054600181600116156101000203166002900480601f0160208091040260200160405190810160405280929190818152602001828054600181600116156101000203166002900480156113c05780601f10611395576101008083540402835291602001916113c0565b820191906000526020600020905b8154815290600101906020018083116113a357829003601f168201915b50505050508152602001600682018054600181600116156101000203166002900480601f0160208091040260200160405190810160405280929190818152602001828054600181600116156101000203166002900480156114625780601f1061143757610100808354040283529160200191611462565b820191906000526020600020905b81548152906001019060200180831161144557829003601f168201915b505050505081525050905087816000018190525086816020018190525085816040018190525084816060018181525050838160800181905250828160a00181905250818160c001819052505050505050505050565b6060600160003373ffffffffffffffffffffffffffffffffffffffff1673ffffffffffffffffffffffffffffffffffffffff1681526020019081526020016000206000018054600181600116156101000203166002900480601f01602080910402602001604051908101604052809291908181526020018280546001816001161561010002031660029004801561158f5780601f106115645761010080835404028352916020019161158f565b820191906000526020600020905b81548152906001019060200180831161157257829003601f168201915b5050505050905090565b60608060606000606080606060006115af611d50565b600160008060009054906101000a900473ffffffffffffffffffffffffffffffffffffffff1673ffffffffffffffffffffffffffffffffffffffff1673ffffffffffffffffffffffffffffffffffffffff16815260200190815260200160002060020160e06040519081016040529081600082018054600181600116156101000203166002900480601f0160208091040260200160405190810160405280929190818152602001828054600181600116156101000203166002900480156116b75780601f1061168c576101008083540402835291602001916116b7565b820191906000526020600020905b81548152906001019060200180831161169a57829003601f168201915b50505050508152602001600182018054600181600116156101000203166002900480601f0160208091040260200160405190810160405280929190818152602001828054600181600116156101000203166002900480156117595780601f1061172e57610100808354040283529160200191611759565b820191906000526020600020905b81548152906001019060200180831161173c57829003601f168201915b50505050508152602001600282018054600181600116156101000203166002900480601f0160208091040260200160405190810160405280929190818152602001828054600181600116156101000203166002900480156117fb5780601f106117d0576101008083540402835291602001916117fb565b820191906000526020600020905b8154815290600101906020018083116117de57829003601f168201915b5050505050815260200160038201548152602001600482018054600181600116156101000203166002900480601f0160208091040260200160405190810160405280929190818152602001828054600181600116156101000203166002900480156118a75780601f1061187c576101008083540402835291602001916118a7565b820191906000526020600020905b81548152906001019060200180831161188a57829003601f168201915b50505050508152602001600582018054600181600116156101000203166002900480601f0160208091040260200160405190810160405280929190818152602001828054600181600116156101000203166002900480156119495780601f1061191e57610100808354040283529160200191611949565b820191906000526020600020905b81548152906001019060200180831161192c57829003601f168201915b50505050508152602001600682018054600181600116156101000203166002900480601f0160208091040260200160405190810160405280929190818152602001828054600181600116156101000203166002900480156119eb5780601f106119c0576101008083540402835291602001916119eb565b820191906000526020600020905b8154815290600101906020018083116119ce57829003601f168201915b5050505050815250509050806000015181602001518260400151836060015184608001518560a001518660c001516000809054906101000a900473ffffffffffffffffffffffffffffffffffffffff1687975086965085955083935082925081915098509850985098509850985098509850509091929394959697565b6000826040516020018082805190602001908083835b602083101515611aa35780518252602082019150602081019050602083039250611a7e565b6001836020036101000a03801982511681845116808217855250505050505090500191505060405160208183030381529060405280519060200120600160003373ffffffffffffffffffffffffffffffffffffffff1673ffffffffffffffffffffffffffffffffffffffff1681526020019081526020016000206000016040516020018082805460018160011615610100020316600290048015611b7e5780601f10611b5c576101008083540402835291820191611b7e565b820191906000526020600020905b815481529060010190602001808311611b6a575b505091505060405160208183030381529060405280519060200120148015611cd25750816040516020018082805190602001908083835b602083101515611bda5780518252602082019150602081019050602083039250611bb5565b6001836020036101000a03801982511681845116808217855250505050505090500191505060405160208183030381529060405280519060200120600160003373ffffffffffffffffffffffffffffffffffffffff1673ffffffffffffffffffffffffffffffffffffffff1681526020019081526020016000206001016040516020018082805460018160011615610100020316600290048015611cb55780601f10611c93576101008083540402835291820191611cb5565b820191906000526020600020905b815481529060010190602001808311611ca1575b505091505060405160208183030381529060405280519060200120145b1515611cdd57600080fd5b336000806101000a81548173ffffffffffffffffffffffffffffffffffffffff021916908373ffffffffffffffffffffffffffffffffffffffff1602179055506001905092915050565b610120604051908101604052806060815260200160608152602001611d4a611d8e565b81525090565b60e060405190810160405280606081526020016060815260200160608152602001600081526020016060815260200160608152602001606081525090565b60e06040519081016040528060608152602001606081526020016060815260200160008152602001606081526020016060815260200160608152509056fea165627a7a723058206d20510b6ea09021645814f2cefdf8aaa495a9fe47287b91960d1d624d8ef1060029",
  "source": "pragma solidity ^0.5.0;\r\n\r\ncontract IdentitiesChain {\r\n    \r\n    struct Usuario{\r\n        string usuario;\r\n        string clave;\r\n        Cedula cedula;\r\n    }\r\n    \r\n    struct Cedula{\r\n        string nombre;\r\n        string gs;\r\n        string rh;\r\n        uint fecha;\r\n        string sexo;\r\n        string ciudad;\r\n        string departamento;\r\n    }\r\n    \r\n    address usuarioActivo;\r\n    mapping(address => Usuario) usuarios;\r\n   \r\n   constructor() public {}\r\n   \r\n   function iniciarSesion(string memory _usuario, string memory _clave) public returns(bool){\r\n       require(keccak256(abi.encodePacked((usuarios[msg.sender].usuario))) == keccak256(abi.encodePacked((_usuario))) && keccak256(abi.encodePacked((usuarios[msg.sender].clave))) == keccak256(abi.encodePacked((_clave))) );\r\n       usuarioActivo = msg.sender;\r\n       return true;\r\n   }\r\n   \r\n   function nuevoUsuario(string memory _usuario, string memory _clave) public {\r\n\r\n        Usuario memory user;\r\n        user = usuarios[msg.sender];\r\n        user.usuario = _usuario;\r\n        user.clave = _clave;\r\n    }\r\n    \r\n    function getUsuario() public view returns(string memory) {\r\n        return usuarios[msg.sender].usuario;\r\n    }\r\n    \r\n    function nuevaCedula(string memory _nombre, string memory _gs, string memory _rh, uint _fecha, string memory _sexo, string memory _ciudad, string memory _departamento) public {\r\n\r\n        Cedula memory _cedula = usuarios[usuarioActivo].cedula;\r\n        _cedula.nombre = _nombre;\r\n        _cedula.gs = _gs;\r\n        _cedula.rh = _rh;\r\n        _cedula.fecha = _fecha;\r\n        _cedula.sexo = _sexo;\r\n        _cedula.ciudad = _ciudad;\r\n        _cedula.departamento = _departamento;\r\n    }\r\n    \r\n    function getCedula() public view returns(string memory, string memory, string memory , uint, string memory, string memory, string memory, address){\r\n        Cedula memory _cedula = usuarios[usuarioActivo].cedula;\r\n        return (_cedula.nombre, _cedula.gs, _cedula.rh, _cedula.fecha, _cedula.sexo, _cedula.ciudad, _cedula.departamento, usuarioActivo);\r\n    }\r\n   \r\n}",
  "sourcePath": "D:/Blockchain/aplicacionAngular/contracts/IdentitiesChain.sol",
  "compiler": {
    "name": "solc",
    "version": "0.5.0+commit.1d4f565a.Emscripten.clang"
  },
  "schemaVersion": "3.0.6",
  "updatedAt": "2019-04-25T04:43:25.058Z",
  "devdoc": {
    "methods": {}
  },
  "userdoc": {
    "methods": {}
  }
}