{
  "contractName": "IdentitiesChain",
  "abi": [
    {
      "inputs": [],
      "payable": false,
      "stateMutability": "nonpayable",
      "type": "constructor"
    },
    {
      "anonymous": false,
      "inputs": [
        {
          "indexed": false,
          "name": "nombre",
          "type": "string"
        },
        {
          "indexed": false,
          "name": "fecha",
          "type": "string"
        },
        {
          "indexed": false,
          "name": "sexo",
          "type": "string"
        },
        {
          "indexed": false,
          "name": "ciudad",
          "type": "string"
        },
        {
          "indexed": false,
          "name": "departamento",
          "type": "string"
        },
        {
          "indexed": false,
          "name": "url",
          "type": "string"
        },
        {
          "indexed": false,
          "name": "adr",
          "type": "address"
        }
      ],
      "name": "Cedulita",
      "type": "event"
    },
    {
      "constant": false,
      "inputs": [
        {
          "name": "_usuario",
          "type": "string"
        },
        {
          "name": "_clave",
          "type": "string"
        }
      ],
      "name": "iniciarSesion",
      "outputs": [
        {
          "name": "",
          "type": "bool"
        }
      ],
      "payable": false,
      "stateMutability": "nonpayable",
      "type": "function"
    },
    {
      "constant": false,
      "inputs": [
        {
          "name": "_usuario",
          "type": "string"
        },
        {
          "name": "_clave",
          "type": "string"
        },
        {
          "name": "sender",
          "type": "address"
        }
      ],
      "name": "nuevoUsuario",
      "outputs": [
        {
          "name": "",
          "type": "address"
        }
      ],
      "payable": false,
      "stateMutability": "nonpayable",
      "type": "function"
    },
    {
      "constant": true,
      "inputs": [],
      "name": "getUsuario",
      "outputs": [
        {
          "name": "",
          "type": "string"
        }
      ],
      "payable": false,
      "stateMutability": "view",
      "type": "function"
    },
    {
      "constant": false,
      "inputs": [
        {
          "name": "_nombre",
          "type": "string"
        },
        {
          "name": "_fecha",
          "type": "string"
        },
        {
          "name": "_sexo",
          "type": "string"
        },
        {
          "name": "_ciudad",
          "type": "string"
        },
        {
          "name": "_departamento",
          "type": "string"
        },
        {
          "name": "_url",
          "type": "string"
        }
      ],
      "name": "nuevaCedula",
      "outputs": [],
      "payable": false,
      "stateMutability": "nonpayable",
      "type": "function"
    },
    {
      "constant": false,
      "inputs": [
        {
          "name": "dir",
          "type": "string"
        }
      ],
      "name": "getCedula",
      "outputs": [
        {
          "name": "",
          "type": "string"
        },
        {
          "name": "",
          "type": "string"
        },
        {
          "name": "",
          "type": "string"
        },
        {
          "name": "",
          "type": "string"
        },
        {
          "name": "",
          "type": "string"
        },
        {
          "name": "",
          "type": "string"
        },
        {
          "name": "",
          "type": "address"
        }
      ],
      "payable": false,
      "stateMutability": "nonpayable",
      "type": "function"
    },
    {
      "constant": false,
      "inputs": [
        {
          "name": "_destinatario",
          "type": "address"
        },
        {
          "name": "_docs",
          "type": "string[]"
        },
        {
          "name": "idPermiso",
          "type": "string"
        }
      ],
      "name": "compartir",
      "outputs": [],
      "payable": false,
      "stateMutability": "nonpayable",
      "type": "function"
    }
  ],
  "bytecode": "0x608060405234801561001057600080fd5b50611ff4806100206000396000f3fe608060405260043610610078576000357c0100000000000000000000000000000000000000000000000000000000900463ffffffff16806349bc8d181461007d5780636a738513146100a8578063738cbe46146100d1578063aa31db8214610114578063c6ce03d61461013d578063ea877d051461017a575b600080fd5b34801561008957600080fd5b506100926101b7565b60405161009f9190611cf9565b60405180910390f35b3480156100b457600080fd5b506100cf60048036036100ca9190810190611925565b610299565b005b3480156100dd57600080fd5b506100f860048036036100f391908101906119a4565b610527565b60405161010b9796959493929190611d1b565b60405180910390f35b34801561012057600080fd5b5061013b60048036036101369190810190611ad0565b610e3b565b005b34801561014957600080fd5b50610164600480360361015f91908101906119e5565b611125565b6040516101719190611cde565b60405180910390f35b34801561018657600080fd5b506101a1600480360361019c9190810190611a51565b6113e4565b6040516101ae9190611cc3565b60405180910390f35b6060600160003373ffffffffffffffffffffffffffffffffffffffff1673ffffffffffffffffffffffffffffffffffffffff1681526020019081526020016000206000018054600181600116156101000203166002900480601f01602080910402602001604051908101604052809291908181526020018280546001816001161561010002031660029004801561028f5780601f106102645761010080835404028352916020019161028f565b820191906000526020600020905b81548152906001019060200180831161027257829003601f168201915b5050505050905090565b336002826040518082805190602001908083835b6020831015156102d257805182526020820191506020810190506020830392506102ad565b6001836020036101000a038019825116818451168082178552505050505050905001915050908152602001604051809103902060000160006101000a81548173ffffffffffffffffffffffffffffffffffffffff021916908373ffffffffffffffffffffffffffffffffffffffff160217905550816002826040518082805190602001908083835b60208310151561037f578051825260208201915060208101905060208303925061035a565b6001836020036101000a038019825116818451168082178552505050505050905001915050908152602001604051809103902060010190805190602001906103c89291906114ff565b50600160008473ffffffffffffffffffffffffffffffffffffffff1673ffffffffffffffffffffffffffffffffffffffff1681526020019081526020016000206008016002826040518082805190602001908083835b602083101515610443578051825260208201915060208101905060208303925061041e565b6001836020036101000a0380198251168184511680821785525050505050509050019150509081526020016040518091039020908060018154018082558091505090600182039060005260206000209060020201600090919290919091506000820160009054906101000a900473ffffffffffffffffffffffffffffffffffffffff168160000160006101000a81548173ffffffffffffffffffffffffffffffffffffffff021916908373ffffffffffffffffffffffffffffffffffffffff160217905550600182018160010190805461051e92919061155f565b50505050505050565b60608060608060608060007ffa0a37b2dc978d7fea580d156d0eff4fd7eaf452b7c98be313750fc94bca356d600160008060009054906101000a900473ffffffffffffffffffffffffffffffffffffffff1673ffffffffffffffffffffffffffffffffffffffff1673ffffffffffffffffffffffffffffffffffffffff168152602001908152602001600020600201600001600160008060009054906101000a900473ffffffffffffffffffffffffffffffffffffffff1673ffffffffffffffffffffffffffffffffffffffff1673ffffffffffffffffffffffffffffffffffffffff168152602001908152602001600020600201600101600160008060009054906101000a900473ffffffffffffffffffffffffffffffffffffffff1673ffffffffffffffffffffffffffffffffffffffff1673ffffffffffffffffffffffffffffffffffffffff168152602001908152602001600020600201600201600160008060009054906101000a900473ffffffffffffffffffffffffffffffffffffffff1673ffffffffffffffffffffffffffffffffffffffff1673ffffffffffffffffffffffffffffffffffffffff168152602001908152602001600020600201600301600160008060009054906101000a900473ffffffffffffffffffffffffffffffffffffffff1673ffffffffffffffffffffffffffffffffffffffff1673ffffffffffffffffffffffffffffffffffffffff168152602001908152602001600020600201600401600160008060009054906101000a900473ffffffffffffffffffffffffffffffffffffffff1673ffffffffffffffffffffffffffffffffffffffff1673ffffffffffffffffffffffffffffffffffffffff1681526020019081526020016000206002016005016000809054906101000a900473ffffffffffffffffffffffffffffffffffffffff166040516107ec9796959493929190611db4565b60405180910390a1600160008060009054906101000a900473ffffffffffffffffffffffffffffffffffffffff1673ffffffffffffffffffffffffffffffffffffffff1673ffffffffffffffffffffffffffffffffffffffff168152602001908152602001600020600201600001600160008060009054906101000a900473ffffffffffffffffffffffffffffffffffffffff1673ffffffffffffffffffffffffffffffffffffffff1673ffffffffffffffffffffffffffffffffffffffff168152602001908152602001600020600201600101600160008060009054906101000a900473ffffffffffffffffffffffffffffffffffffffff1673ffffffffffffffffffffffffffffffffffffffff1673ffffffffffffffffffffffffffffffffffffffff168152602001908152602001600020600201600201600160008060009054906101000a900473ffffffffffffffffffffffffffffffffffffffff1673ffffffffffffffffffffffffffffffffffffffff1673ffffffffffffffffffffffffffffffffffffffff168152602001908152602001600020600201600301600160008060009054906101000a900473ffffffffffffffffffffffffffffffffffffffff1673ffffffffffffffffffffffffffffffffffffffff1673ffffffffffffffffffffffffffffffffffffffff168152602001908152602001600020600201600401600160008060009054906101000a900473ffffffffffffffffffffffffffffffffffffffff1673ffffffffffffffffffffffffffffffffffffffff1673ffffffffffffffffffffffffffffffffffffffff1681526020019081526020016000206002016005016000809054906101000a900473ffffffffffffffffffffffffffffffffffffffff16868054600181600116156101000203166002900480601f016020809104026020016040519081016040528092919081815260200182805460018160011615610100020316600290048015610b0f5780601f10610ae457610100808354040283529160200191610b0f565b820191906000526020600020905b815481529060010190602001808311610af257829003601f168201915b50505050509650858054600181600116156101000203166002900480601f016020809104026020016040519081016040528092919081815260200182805460018160011615610100020316600290048015610bab5780601f10610b8057610100808354040283529160200191610bab565b820191906000526020600020905b815481529060010190602001808311610b8e57829003601f168201915b50505050509550848054600181600116156101000203166002900480601f016020809104026020016040519081016040528092919081815260200182805460018160011615610100020316600290048015610c475780601f10610c1c57610100808354040283529160200191610c47565b820191906000526020600020905b815481529060010190602001808311610c2a57829003601f168201915b50505050509450838054600181600116156101000203166002900480601f016020809104026020016040519081016040528092919081815260200182805460018160011615610100020316600290048015610ce35780601f10610cb857610100808354040283529160200191610ce3565b820191906000526020600020905b815481529060010190602001808311610cc657829003601f168201915b50505050509350828054600181600116156101000203166002900480601f016020809104026020016040519081016040528092919081815260200182805460018160011615610100020316600290048015610d7f5780601f10610d5457610100808354040283529160200191610d7f565b820191906000526020600020905b815481529060010190602001808311610d6257829003601f168201915b50505050509250818054600181600116156101000203166002900480601f016020809104026020016040519081016040528092919081815260200182805460018160011615610100020316600290048015610e1b5780601f10610df057610100808354040283529160200191610e1b565b820191906000526020600020905b815481529060010190602001808311610dfe57829003601f168201915b505050505091509650965096509650965096509650919395979092949650565b85600160008060009054906101000a900473ffffffffffffffffffffffffffffffffffffffff1673ffffffffffffffffffffffffffffffffffffffff1673ffffffffffffffffffffffffffffffffffffffff1681526020019081526020016000206002016000019080519060200190610eb59291906115cf565b5084600160008060009054906101000a900473ffffffffffffffffffffffffffffffffffffffff1673ffffffffffffffffffffffffffffffffffffffff1673ffffffffffffffffffffffffffffffffffffffff1681526020019081526020016000206002016001019080519060200190610f309291906115cf565b5083600160008060009054906101000a900473ffffffffffffffffffffffffffffffffffffffff1673ffffffffffffffffffffffffffffffffffffffff1673ffffffffffffffffffffffffffffffffffffffff1681526020019081526020016000206002016002019080519060200190610fab9291906115cf565b5082600160008060009054906101000a900473ffffffffffffffffffffffffffffffffffffffff1673ffffffffffffffffffffffffffffffffffffffff1673ffffffffffffffffffffffffffffffffffffffff16815260200190815260200160002060020160030190805190602001906110269291906115cf565b5081600160008060009054906101000a900473ffffffffffffffffffffffffffffffffffffffff1673ffffffffffffffffffffffffffffffffffffffff1673ffffffffffffffffffffffffffffffffffffffff16815260200190815260200160002060020160040190805190602001906110a19291906115cf565b5080600160008060009054906101000a900473ffffffffffffffffffffffffffffffffffffffff1673ffffffffffffffffffffffffffffffffffffffff1673ffffffffffffffffffffffffffffffffffffffff168152602001908152602001600020600201600501908051906020019061111c9291906115cf565b50505050505050565b6000826040516020018082805190602001908083835b602083101515611160578051825260208201915060208101905060208303925061113b565b6001836020036101000a03801982511681845116808217855250505050505090500191505060405160208183030381529060405280519060200120600160003373ffffffffffffffffffffffffffffffffffffffff1673ffffffffffffffffffffffffffffffffffffffff168152602001908152602001600020600001604051602001808280546001816001161561010002031660029004801561123b5780601f1061121957610100808354040283529182019161123b565b820191906000526020600020905b815481529060010190602001808311611227575b50509150506040516020818303038152906040528051906020012014801561138f5750816040516020018082805190602001908083835b6020831015156112975780518252602082019150602081019050602083039250611272565b6001836020036101000a03801982511681845116808217855250505050505090500191505060405160208183030381529060405280519060200120600160003373ffffffffffffffffffffffffffffffffffffffff1673ffffffffffffffffffffffffffffffffffffffff16815260200190815260200160002060010160405160200180828054600181600116156101000203166002900480156113725780601f10611350576101008083540402835291820191611372565b820191906000526020600020905b81548152906001019060200180831161135e575b505091505060405160208183030381529060405280519060200120145b151561139a57600080fd5b336000806101000a81548173ffffffffffffffffffffffffffffffffffffffff021916908373ffffffffffffffffffffffffffffffffffffffff1602179055506001905092915050565b600083600160003373ffffffffffffffffffffffffffffffffffffffff1673ffffffffffffffffffffffffffffffffffffffff168152602001908152602001600020600001908051906020019061143c9291906115cf565b5082600160003373ffffffffffffffffffffffffffffffffffffffff1673ffffffffffffffffffffffffffffffffffffffff16815260200190815260200160002060010190805190602001906114939291906115cf565b50336000806101000a81548173ffffffffffffffffffffffffffffffffffffffff021916908373ffffffffffffffffffffffffffffffffffffffff1602179055506000809054906101000a900473ffffffffffffffffffffffffffffffffffffffff1690509392505050565b82805482825590600052602060002090810192821561154e579160200282015b8281111561154d57825182908051906020019061153d92919061164f565b509160200191906001019061151f565b5b50905061155b91906116cf565b5090565b8280548282559060005260206000209081019282156115be5760005260206000209182015b828111156115bd57828290805460018160011615610100020316600290046115ad9291906116fb565b5091600101919060010190611584565b5b5090506115cb91906116cf565b5090565b828054600181600116156101000203166002900490600052602060002090601f016020900481019282601f1061161057805160ff191683800117855561163e565b8280016001018555821561163e579182015b8281111561163d578251825591602001919060010190611622565b5b50905061164b9190611782565b5090565b828054600181600116156101000203166002900490600052602060002090601f016020900481019282601f1061169057805160ff19168380011785556116be565b828001600101855582156116be579182015b828111156116bd5782518255916020019190600101906116a2565b5b5090506116cb9190611782565b5090565b6116f891905b808211156116f457600081816116eb91906117a7565b506001016116d5565b5090565b90565b828054600181600116156101000203166002900490600052602060002090601f016020900481019282601f106117345780548555611771565b8280016001018555821561177157600052602060002091601f016020900482015b82811115611770578254825591600101919060010190611755565b5b50905061177e9190611782565b5090565b6117a491905b808211156117a0576000816000905550600101611788565b5090565b90565b50805460018160011615610100020316600290046000825580601f106117cd57506117ec565b601f0160209004906000526020600020908101906117eb9190611782565b5b50565b60006117fb8235611f55565b905092915050565b600082601f830112151561181657600080fd5b813561182961182482611e7a565b611e4d565b9150818183526020840193506020810190508360005b8381101561186f57813586016118558882611879565b84526020840193506020830192505060018101905061183f565b5050505092915050565b600082601f830112151561188c57600080fd5b813561189f61189a82611ea2565b611e4d565b915080825260208301602083018583830111156118bb57600080fd5b6118c6838284611f67565b50505092915050565b600082601f83011215156118e257600080fd5b81356118f56118f082611ece565b611e4d565b9150808252602083016020830185838301111561191157600080fd5b61191c838284611f67565b50505092915050565b60008060006060848603121561193a57600080fd5b6000611948868287016117ef565b935050602084013567ffffffffffffffff81111561196557600080fd5b61197186828701611803565b925050604084013567ffffffffffffffff81111561198e57600080fd5b61199a868287016118cf565b9150509250925092565b6000602082840312156119b657600080fd5b600082013567ffffffffffffffff8111156119d057600080fd5b6119dc848285016118cf565b91505092915050565b600080604083850312156119f857600080fd5b600083013567ffffffffffffffff811115611a1257600080fd5b611a1e858286016118cf565b925050602083013567ffffffffffffffff811115611a3b57600080fd5b611a47858286016118cf565b9150509250929050565b600080600060608486031215611a6657600080fd5b600084013567ffffffffffffffff811115611a8057600080fd5b611a8c868287016118cf565b935050602084013567ffffffffffffffff811115611aa957600080fd5b611ab5868287016118cf565b9250506040611ac6868287016117ef565b9150509250925092565b60008060008060008060c08789031215611ae957600080fd5b600087013567ffffffffffffffff811115611b0357600080fd5b611b0f89828a016118cf565b965050602087013567ffffffffffffffff811115611b2c57600080fd5b611b3889828a016118cf565b955050604087013567ffffffffffffffff811115611b5557600080fd5b611b6189828a016118cf565b945050606087013567ffffffffffffffff811115611b7e57600080fd5b611b8a89828a016118cf565b935050608087013567ffffffffffffffff811115611ba757600080fd5b611bb389828a016118cf565b92505060a087013567ffffffffffffffff811115611bd057600080fd5b611bdc89828a016118cf565b9150509295509295509295565b611bf281611f17565b82525050565b611c0181611f29565b82525050565b6000611c1282611f0c565b808452611c26816020860160208601611f76565b611c2f81611fa9565b602085010191505092915050565b600081546001811660008114611c5a5760018114611c7a57611cbb565b607f600283041680865260ff198316602087015260408601935050611cbb565b60028204808652602086019550611c9085611efa565b60005b82811015611cb257815481890152600182019150602081019050611c93565b80880195505050505b505092915050565b6000602082019050611cd86000830184611be9565b92915050565b6000602082019050611cf36000830184611bf8565b92915050565b60006020820190508181036000830152611d138184611c07565b905092915050565b600060e0820190508181036000830152611d35818a611c07565b90508181036020830152611d498189611c07565b90508181036040830152611d5d8188611c07565b90508181036060830152611d718187611c07565b90508181036080830152611d858186611c07565b905081810360a0830152611d998185611c07565b9050611da860c0830184611be9565b98975050505050505050565b600060e0820190508181036000830152611dce818a611c3d565b90508181036020830152611de28189611c3d565b90508181036040830152611df68188611c3d565b90508181036060830152611e0a8187611c3d565b90508181036080830152611e1e8186611c3d565b905081810360a0830152611e328185611c3d565b9050611e4160c0830184611be9565b98975050505050505050565b6000604051905081810181811067ffffffffffffffff82111715611e7057600080fd5b8060405250919050565b600067ffffffffffffffff821115611e9157600080fd5b602082029050602081019050919050565b600067ffffffffffffffff821115611eb957600080fd5b601f19601f8301169050602081019050919050565b600067ffffffffffffffff821115611ee557600080fd5b601f19601f8301169050602081019050919050565b60008160005260206000209050919050565b600081519050919050565b6000611f2282611f35565b9050919050565b60008115159050919050565b600073ffffffffffffffffffffffffffffffffffffffff82169050919050565b6000611f6082611f35565b9050919050565b82818337600083830152505050565b60005b83811015611f94578082015181840152602081019050611f79565b83811115611fa3576000848401525b50505050565b6000601f19601f830116905091905056fea265627a7a723058207b10b9ede64a90c4ead7b202392147ce3a62741d02843f4e5811cdd26ce63ec26c6578706572696d656e74616cf50037",
  "source": "pragma solidity ^0.5.0;\r\npragma experimental ABIEncoderV2;\r\n\r\ncontract IdentitiesChain {\r\n    \r\n    struct Usuario{\r\n        string usuario;\r\n        string clave;\r\n        Cedula cedula;\r\n        Permiso[] permisos;\r\n    }\r\n    \r\n    struct Cedula{\r\n        string nombre;\r\n        string fecha;\r\n        string sexo;\r\n        string ciudad;\r\n        string departamento;\r\n        string url;\r\n    }\r\n\r\n    struct Documento{\r\n        string nombre;\r\n        string url;\r\n    }\r\n\r\n    struct Permiso{\r\n        address duenio;\r\n        string[] docs; \r\n    }\r\n    \r\n    address usuarioActivo;\r\n    mapping(address => Usuario) usuarios;\r\n    mapping(string => Permiso) permisos;\r\n   \r\n   constructor() public {}\r\n   \r\n   function iniciarSesion(string memory _usuario, string memory _clave) public returns(bool){\r\n       require(keccak256(abi.encodePacked((usuarios[msg.sender].usuario))) == keccak256(abi.encodePacked((_usuario))) && keccak256(abi.encodePacked((usuarios[msg.sender].clave))) == keccak256(abi.encodePacked((_clave))) );\r\n       usuarioActivo = msg.sender;\r\n       return true;\r\n   }\r\n   \r\n   function nuevoUsuario(string memory _usuario, string memory _clave, address sender) public returns(address){\r\n\r\n        //Usuario memory user;\r\n        //user = usuarios[msg.sender];\r\n        usuarios[msg.sender].usuario = _usuario;\r\n        usuarios[msg.sender].clave = _clave;\r\n        usuarioActivo = msg.sender;\r\n        return usuarioActivo;\r\n    }\r\n    \r\n    function getUsuario() public view returns(string memory) {\r\n        return usuarios[msg.sender].usuario;\r\n    }\r\n    \r\n    function nuevaCedula(string memory _nombre, string memory _fecha, string memory _sexo, string memory _ciudad, string memory _departamento, string memory _url) public {\r\n\r\n        //Cedula memory _cedula = usuarios[usuarioActivo].cedula;\r\n        usuarios[usuarioActivo].cedula.nombre = _nombre;\r\n        usuarios[usuarioActivo].cedula.fecha = _fecha;\r\n        usuarios[usuarioActivo].cedula.sexo = _sexo;\r\n        usuarios[usuarioActivo].cedula.ciudad = _ciudad;\r\n        usuarios[usuarioActivo].cedula.departamento = _departamento;\r\n        usuarios[usuarioActivo].cedula.url = _url;\r\n    }\r\n\r\n    event Cedulita(\r\n        string nombre,\r\n        string fecha,\r\n        string sexo,\r\n        string ciudad,\r\n        string departamento,\r\n        string url,\r\n        address adr\r\n    );\r\n    \r\n    function getCedula(string memory dir) public returns(string memory, string memory, string memory, string memory, string memory, string memory, address){\r\n        //Cedula memory _cedula = usuarios[usuarioActivo].cedula;\r\n        emit Cedulita(usuarios[usuarioActivo].cedula.nombre, usuarios[usuarioActivo].cedula.fecha, usuarios[usuarioActivo].cedula.sexo,\r\n         usuarios[usuarioActivo].cedula.ciudad, usuarios[usuarioActivo].cedula.departamento, usuarios[usuarioActivo].cedula.url, usuarioActivo);\r\n        return (usuarios[usuarioActivo].cedula.nombre, usuarios[usuarioActivo].cedula.fecha, usuarios[usuarioActivo].cedula.sexo,\r\n         usuarios[usuarioActivo].cedula.ciudad, usuarios[usuarioActivo].cedula.departamento, usuarios[usuarioActivo].cedula.url, usuarioActivo);\r\n    }\r\n\r\n    function compartir(address _destinatario, string[] memory _docs, string memory idPermiso) public {\r\n        permisos[idPermiso].duenio = msg.sender;\r\n        permisos[idPermiso].docs = _docs;\r\n        usuarios[_destinatario].permisos.push(permisos[idPermiso]);\r\n    }\r\n   \r\n}",
  "sourcePath": "C:/Users/Labing/Downloads/IdentitiesChainBC/contracts/IdentitiesChain.sol",
  "compiler": {
    "name": "solc",
    "version": "0.5.0+commit.1d4f565a.Emscripten.clang"
  },
  "schemaVersion": "3.0.9",
  "updatedAt": "2019-05-17T16:55:27.178Z",
  "devdoc": {
    "methods": {}
  },
  "userdoc": {
    "methods": {}
  }
}