{
  "contractName": "IdentitiesChain",
  "abi": [
    {
      "inputs": [],
      "payable": false,
      "stateMutability": "nonpayable",
      "type": "constructor"
    },
    {
      "anonymous": false,
      "inputs": [
        {
          "indexed": false,
          "name": "nombre",
          "type": "string"
        },
        {
          "indexed": false,
          "name": "fecha",
          "type": "string"
        },
        {
          "indexed": false,
          "name": "sexo",
          "type": "string"
        },
        {
          "indexed": false,
          "name": "ciudad",
          "type": "string"
        },
        {
          "indexed": false,
          "name": "departamento",
          "type": "string"
        },
        {
          "indexed": false,
          "name": "url",
          "type": "string"
        },
        {
          "indexed": false,
          "name": "adr",
          "type": "address"
        }
      ],
      "name": "Cedulita",
      "type": "event"
    },
    {
      "anonymous": false,
      "inputs": [
        {
          "components": [
            {
              "name": "nombre",
              "type": "string"
            },
            {
              "name": "url",
              "type": "string"
            },
            {
              "name": "hash",
              "type": "string"
            }
          ],
          "indexed": false,
          "name": "docs",
          "type": "tuple"
        }
      ],
      "name": "Documentos",
      "type": "event"
    },
    {
      "anonymous": false,
      "inputs": [
        {
          "components": [
            {
              "name": "duenio",
              "type": "address"
            },
            {
              "components": [
                {
                  "name": "nombre",
                  "type": "string"
                },
                {
                  "name": "url",
                  "type": "string"
                },
                {
                  "name": "hash",
                  "type": "string"
                }
              ],
              "name": "docs",
              "type": "tuple[]"
            }
          ],
          "indexed": false,
          "name": "perms",
          "type": "tuple[]"
        }
      ],
      "name": "Permisos",
      "type": "event"
    },
    {
      "constant": false,
      "inputs": [
        {
          "name": "_usuario",
          "type": "string"
        },
        {
          "name": "_clave",
          "type": "string"
        }
      ],
      "name": "iniciarSesion",
      "outputs": [
        {
          "name": "",
          "type": "bool"
        }
      ],
      "payable": false,
      "stateMutability": "nonpayable",
      "type": "function"
    },
    {
      "constant": false,
      "inputs": [
        {
          "name": "_usuario",
          "type": "string"
        },
        {
          "name": "_clave",
          "type": "string"
        },
        {
          "name": "sender",
          "type": "address"
        }
      ],
      "name": "nuevoUsuario",
      "outputs": [
        {
          "name": "",
          "type": "address"
        }
      ],
      "payable": false,
      "stateMutability": "nonpayable",
      "type": "function"
    },
    {
      "constant": true,
      "inputs": [],
      "name": "getUsuario",
      "outputs": [
        {
          "name": "",
          "type": "string"
        }
      ],
      "payable": false,
      "stateMutability": "view",
      "type": "function"
    },
    {
      "constant": false,
      "inputs": [
        {
          "name": "_nombre",
          "type": "string"
        },
        {
          "name": "_fecha",
          "type": "string"
        },
        {
          "name": "_sexo",
          "type": "string"
        },
        {
          "name": "_ciudad",
          "type": "string"
        },
        {
          "name": "_departamento",
          "type": "string"
        },
        {
          "name": "_url",
          "type": "string"
        }
      ],
      "name": "nuevaCedula",
      "outputs": [],
      "payable": false,
      "stateMutability": "nonpayable",
      "type": "function"
    },
    {
      "constant": false,
      "inputs": [
        {
          "name": "dir",
          "type": "string"
        }
      ],
      "name": "getCedula",
      "outputs": [
        {
          "name": "",
          "type": "string"
        },
        {
          "name": "",
          "type": "string"
        },
        {
          "name": "",
          "type": "string"
        },
        {
          "name": "",
          "type": "string"
        },
        {
          "name": "",
          "type": "string"
        },
        {
          "name": "",
          "type": "string"
        },
        {
          "name": "",
          "type": "address"
        }
      ],
      "payable": false,
      "stateMutability": "nonpayable",
      "type": "function"
    },
    {
      "constant": false,
      "inputs": [
        {
          "name": "_nombre",
          "type": "string"
        },
        {
          "name": "_url",
          "type": "string"
        },
        {
          "name": "_hash",
          "type": "string"
        },
        {
          "name": "_idDoc",
          "type": "string"
        }
      ],
      "name": "nuevoDocumento",
      "outputs": [],
      "payable": false,
      "stateMutability": "nonpayable",
      "type": "function"
    },
    {
      "constant": false,
      "inputs": [],
      "name": "getDocumentos",
      "outputs": [],
      "payable": false,
      "stateMutability": "nonpayable",
      "type": "function"
    },
    {
      "constant": false,
      "inputs": [
        {
          "name": "_destinatario",
          "type": "address"
        },
        {
          "name": "_idDocs",
          "type": "string[]"
        },
        {
          "name": "idPermiso",
          "type": "string"
        }
      ],
      "name": "compartir",
      "outputs": [],
      "payable": false,
      "stateMutability": "nonpayable",
      "type": "function"
    },
    {
      "constant": false,
      "inputs": [],
      "name": "getPermisos",
      "outputs": [
        {
          "components": [
            {
              "name": "duenio",
              "type": "address"
            },
            {
              "components": [
                {
                  "name": "nombre",
                  "type": "string"
                },
                {
                  "name": "url",
                  "type": "string"
                },
                {
                  "name": "hash",
                  "type": "string"
                }
              ],
              "name": "docs",
              "type": "tuple[]"
            }
          ],
          "name": "p",
          "type": "tuple[]"
        }
      ],
      "payable": false,
      "stateMutability": "nonpayable",
      "type": "function"
    }
  ],
  "bytecode": "0x608060405234801561001057600080fd5b50612502806100206000396000f3fe608060405260043610610099576000357c0100000000000000000000000000000000000000000000000000000000900463ffffffff16806329eff33b1461009e57806349bc8d18146100b55780636a738513146100e0578063738cbe4614610109578063804851c01461014c578063aa31db8214610177578063c6ce03d6146101a0578063da01959c146101dd578063ea877d0514610206575b600080fd5b3480156100aa57600080fd5b506100b3610243565b005b3480156100c157600080fd5b506100ca61037b565b6040516100d7919061212f565b60405180910390f35b3480156100ec57600080fd5b5061010760048036036101029190810190611927565b61045d565b005b34801561011557600080fd5b50610130600480360361012b91908101906119a6565b610821565b6040516101439796959493929190612151565b60405180910390f35b34801561015857600080fd5b50610161610af9565b60405161016e91906120d0565b60405180910390f35b34801561018357600080fd5b5061019e60048036036101999190810190611b95565b610b97565b005b3480156101ac57600080fd5b506101c760048036036101c291908101906119e7565b610e81565b6040516101d49190612114565b60405180910390f35b3480156101e957600080fd5b5061020460048036036101ff9190810190611ad2565b611140565b005b34801561021257600080fd5b5061022d60048036036102289190810190611a53565b611443565b60405161023a91906120b5565b60405180910390f35b60008090505b600160008060009054906101000a900473ffffffffffffffffffffffffffffffffffffffff1673ffffffffffffffffffffffffffffffffffffffff1673ffffffffffffffffffffffffffffffffffffffff16815260200190815260200160002060080180549050811015610378577fd949eb9f2fa3247c616b58c2cf19a833af36cf2dc9d6ec312ee0bc0dabda50e6600160008060009054906101000a900473ffffffffffffffffffffffffffffffffffffffff1673ffffffffffffffffffffffffffffffffffffffff1673ffffffffffffffffffffffffffffffffffffffff1681526020019081526020016000206008018281548110151561034857fe5b90600052602060002090600302016040516103639190612283565b60405180910390a18080600101915050610249565b50565b6060600160003373ffffffffffffffffffffffffffffffffffffffff1673ffffffffffffffffffffffffffffffffffffffff1681526020019081526020016000206000018054600181600116156101000203166002900480601f0160208091040260200160405190810160405280929190818152602001828054600181600116156101000203166002900480156104535780601f1061042857610100808354040283529160200191610453565b820191906000526020600020905b81548152906001019060200180831161043657829003601f168201915b5050505050905090565b336002826040518082805190602001908083835b6020831015156104965780518252602082019150602081019050602083039250610471565b6001836020036101000a038019825116818451168082178552505050505050905001915050908152602001604051809103902060000160006101000a81548173ffffffffffffffffffffffffffffffffffffffff021916908373ffffffffffffffffffffffffffffffffffffffff16021790555060008251905060008090505b818110156106c1576002836040518082805190602001908083835b6020831015156105565780518252602082019150602081019050602083039250610531565b6001836020036101000a03801982511681845116808217855250505050505090500191505090815260200160405180910390206001016003858381518110151561059c57fe5b906020019060200201516040518082805190602001908083835b6020831015156105db57805182526020820191506020810190506020830392506105b6565b6001836020036101000a0380198251168184511680821785525050505050509050019150509081526020016040518091039020908060018154018082558091505090600182039060005260206000209060030201600090919290919091506000820181600001908054600181600116156101000203166002900461066092919061155e565b506001820181600101908054600181600116156101000203166002900461068892919061155e565b50600282018160020190805460018160011615610100020316600290046106b092919061155e565b505050508080600101915050610516565b50600160008573ffffffffffffffffffffffffffffffffffffffff1673ffffffffffffffffffffffffffffffffffffffff1681526020019081526020016000206009016002836040518082805190602001908083835b60208310151561073c5780518252602082019150602081019050602083039250610717565b6001836020036101000a0380198251168184511680821785525050505050509050019150509081526020016040518091039020908060018154018082558091505090600182039060005260206000209060020201600090919290919091506000820160009054906101000a900473ffffffffffffffffffffffffffffffffffffffff168160000160006101000a81548173ffffffffffffffffffffffffffffffffffffffff021916908373ffffffffffffffffffffffffffffffffffffffff16021790555060018201816001019080546108179291906115e5565b5050505050505050565b60608060608060608060007ffa0a37b2dc978d7fea580d156d0eff4fd7eaf452b7c98be313750fc94bca356d600160008060009054906101000a900473ffffffffffffffffffffffffffffffffffffffff1673ffffffffffffffffffffffffffffffffffffffff1673ffffffffffffffffffffffffffffffffffffffff168152602001908152602001600020600201600001600160008060009054906101000a900473ffffffffffffffffffffffffffffffffffffffff1673ffffffffffffffffffffffffffffffffffffffff1673ffffffffffffffffffffffffffffffffffffffff168152602001908152602001600020600201600101600160008060009054906101000a900473ffffffffffffffffffffffffffffffffffffffff1673ffffffffffffffffffffffffffffffffffffffff1673ffffffffffffffffffffffffffffffffffffffff168152602001908152602001600020600201600201600160008060009054906101000a900473ffffffffffffffffffffffffffffffffffffffff1673ffffffffffffffffffffffffffffffffffffffff1673ffffffffffffffffffffffffffffffffffffffff168152602001908152602001600020600201600301600160008060009054906101000a900473ffffffffffffffffffffffffffffffffffffffff1673ffffffffffffffffffffffffffffffffffffffff1673ffffffffffffffffffffffffffffffffffffffff168152602001908152602001600020600201600401600160008060009054906101000a900473ffffffffffffffffffffffffffffffffffffffff1673ffffffffffffffffffffffffffffffffffffffff1673ffffffffffffffffffffffffffffffffffffffff1681526020019081526020016000206002016005016000809054906101000a900473ffffffffffffffffffffffffffffffffffffffff16604051610ae697969594939291906121ea565b60405180910390a1919395979092949650565b60607fef59d30396bef67a777ab4515481b8b8cda0dffc7f846e1779660cd4789c76cb600160008060009054906101000a900473ffffffffffffffffffffffffffffffffffffffff1673ffffffffffffffffffffffffffffffffffffffff1673ffffffffffffffffffffffffffffffffffffffff168152602001908152602001600020600901604051610b8c91906120f2565b60405180910390a190565b85600160008060009054906101000a900473ffffffffffffffffffffffffffffffffffffffff1673ffffffffffffffffffffffffffffffffffffffff1673ffffffffffffffffffffffffffffffffffffffff1681526020019081526020016000206002016000019080519060200190610c119291906116b5565b5084600160008060009054906101000a900473ffffffffffffffffffffffffffffffffffffffff1673ffffffffffffffffffffffffffffffffffffffff1673ffffffffffffffffffffffffffffffffffffffff1681526020019081526020016000206002016001019080519060200190610c8c9291906116b5565b5083600160008060009054906101000a900473ffffffffffffffffffffffffffffffffffffffff1673ffffffffffffffffffffffffffffffffffffffff1673ffffffffffffffffffffffffffffffffffffffff1681526020019081526020016000206002016002019080519060200190610d079291906116b5565b5082600160008060009054906101000a900473ffffffffffffffffffffffffffffffffffffffff1673ffffffffffffffffffffffffffffffffffffffff1673ffffffffffffffffffffffffffffffffffffffff1681526020019081526020016000206002016003019080519060200190610d829291906116b5565b5081600160008060009054906101000a900473ffffffffffffffffffffffffffffffffffffffff1673ffffffffffffffffffffffffffffffffffffffff1673ffffffffffffffffffffffffffffffffffffffff1681526020019081526020016000206002016004019080519060200190610dfd9291906116b5565b5080600160008060009054906101000a900473ffffffffffffffffffffffffffffffffffffffff1673ffffffffffffffffffffffffffffffffffffffff1673ffffffffffffffffffffffffffffffffffffffff1681526020019081526020016000206002016005019080519060200190610e789291906116b5565b50505050505050565b6000826040516020018082805190602001908083835b602083101515610ebc5780518252602082019150602081019050602083039250610e97565b6001836020036101000a03801982511681845116808217855250505050505090500191505060405160208183030381529060405280519060200120600160003373ffffffffffffffffffffffffffffffffffffffff1673ffffffffffffffffffffffffffffffffffffffff1681526020019081526020016000206000016040516020018082805460018160011615610100020316600290048015610f975780601f10610f75576101008083540402835291820191610f97565b820191906000526020600020905b815481529060010190602001808311610f83575b5050915050604051602081830303815290604052805190602001201480156110eb5750816040516020018082805190602001908083835b602083101515610ff35780518252602082019150602081019050602083039250610fce565b6001836020036101000a03801982511681845116808217855250505050505090500191505060405160208183030381529060405280519060200120600160003373ffffffffffffffffffffffffffffffffffffffff1673ffffffffffffffffffffffffffffffffffffffff16815260200190815260200160002060010160405160200180828054600181600116156101000203166002900480156110ce5780601f106110ac5761010080835404028352918201916110ce565b820191906000526020600020905b8154815290600101906020018083116110ba575b505091505060405160208183030381529060405280519060200120145b15156110f657600080fd5b336000806101000a81548173ffffffffffffffffffffffffffffffffffffffff021916908373ffffffffffffffffffffffffffffffffffffffff1602179055506001905092915050565b836003826040518082805190602001908083835b6020831015156111795780518252602082019150602081019050602083039250611154565b6001836020036101000a038019825116818451168082178552505050505050905001915050908152602001604051809103902060000190805190602001906111c29291906116b5565b50826003826040518082805190602001908083835b6020831015156111fc57805182526020820191506020810190506020830392506111d7565b6001836020036101000a038019825116818451168082178552505050505050905001915050908152602001604051809103902060010190805190602001906112459291906116b5565b50816003826040518082805190602001908083835b60208310151561127f578051825260208201915060208101905060208303925061125a565b6001836020036101000a038019825116818451168082178552505050505050905001915050908152602001604051809103902060020190805190602001906112c89291906116b5565b50600160008060009054906101000a900473ffffffffffffffffffffffffffffffffffffffff1673ffffffffffffffffffffffffffffffffffffffff1673ffffffffffffffffffffffffffffffffffffffff1681526020019081526020016000206008016003826040518082805190602001908083835b602083101515611364578051825260208201915060208101905060208303925061133f565b6001836020036101000a038019825116818451168082178552505050505050905001915050908152602001604051809103902090806001815401808255809150509060018203906000526020600020906003020160009091929091909150600082018160000190805460018160011615610100020316600290046113e992919061155e565b506001820181600101908054600181600116156101000203166002900461141192919061155e565b506002820181600201908054600181600116156101000203166002900461143992919061155e565b5050505050505050565b600083600160003373ffffffffffffffffffffffffffffffffffffffff1673ffffffffffffffffffffffffffffffffffffffff168152602001908152602001600020600001908051906020019061149b9291906116b5565b5082600160003373ffffffffffffffffffffffffffffffffffffffff1673ffffffffffffffffffffffffffffffffffffffff16815260200190815260200160002060010190805190602001906114f29291906116b5565b50336000806101000a81548173ffffffffffffffffffffffffffffffffffffffff021916908373ffffffffffffffffffffffffffffffffffffffff1602179055506000809054906101000a900473ffffffffffffffffffffffffffffffffffffffff1690509392505050565b828054600181600116156101000203166002900490600052602060002090601f016020900481019282601f1061159757805485556115d4565b828001600101855582156115d457600052602060002091601f016020900482015b828111156115d35782548255916001019190600101906115b8565b5b5090506115e19190611735565b5090565b8280548282559060005260206000209060030281019282156116a45760005260206000209160030282015b828111156116a35782826000820181600001908054600181600116156101000203166002900461164192919061155e565b506001820181600101908054600181600116156101000203166002900461166992919061155e565b506002820181600201908054600181600116156101000203166002900461169192919061155e565b50505091600301919060030190611610565b5b5090506116b1919061175a565b5090565b828054600181600116156101000203166002900490600052602060002090601f016020900481019282601f106116f657805160ff1916838001178555611724565b82800160010185558215611724579182015b82811115611723578251825591602001919060010190611708565b5b5090506117319190611735565b5090565b61175791905b8082111561175357600081600090555060010161173b565b5090565b90565b6117a691905b808211156117a2576000808201600061177991906117a9565b60018201600061178991906117a9565b60028201600061179991906117a9565b50600301611760565b5090565b90565b50805460018160011615610100020316600290046000825580601f106117cf57506117ee565b601f0160209004906000526020600020908101906117ed9190611735565b5b50565b60006117fd8235612456565b905092915050565b600082601f830112151561181857600080fd5b813561182b611826826122d2565b6122a5565b9150818183526020840193506020810190508360005b838110156118715781358601611857888261187b565b845260208401935060208301925050600181019050611841565b5050505092915050565b600082601f830112151561188e57600080fd5b81356118a161189c826122fa565b6122a5565b915080825260208301602083018583830111156118bd57600080fd5b6118c8838284612468565b50505092915050565b600082601f83011215156118e457600080fd5b81356118f76118f282612326565b6122a5565b9150808252602083016020830185838301111561191357600080fd5b61191e838284612468565b50505092915050565b60008060006060848603121561193c57600080fd5b600061194a868287016117f1565b935050602084013567ffffffffffffffff81111561196757600080fd5b61197386828701611805565b925050604084013567ffffffffffffffff81111561199057600080fd5b61199c868287016118d1565b9150509250925092565b6000602082840312156119b857600080fd5b600082013567ffffffffffffffff8111156119d257600080fd5b6119de848285016118d1565b91505092915050565b600080604083850312156119fa57600080fd5b600083013567ffffffffffffffff811115611a1457600080fd5b611a20858286016118d1565b925050602083013567ffffffffffffffff811115611a3d57600080fd5b611a49858286016118d1565b9150509250929050565b600080600060608486031215611a6857600080fd5b600084013567ffffffffffffffff811115611a8257600080fd5b611a8e868287016118d1565b935050602084013567ffffffffffffffff811115611aab57600080fd5b611ab7868287016118d1565b9250506040611ac8868287016117f1565b9150509250925092565b60008060008060808587031215611ae857600080fd5b600085013567ffffffffffffffff811115611b0257600080fd5b611b0e878288016118d1565b945050602085013567ffffffffffffffff811115611b2b57600080fd5b611b37878288016118d1565b935050604085013567ffffffffffffffff811115611b5457600080fd5b611b60878288016118d1565b925050606085013567ffffffffffffffff811115611b7d57600080fd5b611b89878288016118d1565b91505092959194509250565b60008060008060008060c08789031215611bae57600080fd5b600087013567ffffffffffffffff811115611bc857600080fd5b611bd489828a016118d1565b965050602087013567ffffffffffffffff811115611bf157600080fd5b611bfd89828a016118d1565b955050604087013567ffffffffffffffff811115611c1a57600080fd5b611c2689828a016118d1565b945050606087013567ffffffffffffffff811115611c4357600080fd5b611c4f89828a016118d1565b935050608087013567ffffffffffffffff811115611c6c57600080fd5b611c7889828a016118d1565b92505060a087013567ffffffffffffffff811115611c9557600080fd5b611ca189828a016118d1565b9150509295509295509295565b611cb781612418565b82525050565b6000611cc8826123a2565b80845260208401935083602082028501611ce185612352565b60005b84811015611d1a578383038852611cfc838351611f74565b9250611d07826123e4565b9150602088019750600181019050611ce4565b508196508694505050505092915050565b6000611d36826123ad565b80845260208401935083602082028501611d4f8561235f565b60005b84811015611d87578383038852611d698383611fd2565b9250611d74826123f1565b9150602088019750600181019050611d52565b508196508694505050505092915050565b6000611da3826123b8565b80845260208401935083602082028501611dbc85612371565b60005b84811015611df5578383038852611dd783835161202f565b9250611de2826123fe565b9150602088019750600181019050611dbf565b508196508694505050505092915050565b6000611e11826123c3565b80845260208401935083602082028501611e2a8561237e565b60005b84811015611e62578383038852611e44838361206c565b9250611e4f8261240b565b9150602088019750600181019050611e2d565b508196508694505050505092915050565b611e7c8161242a565b82525050565b6000611e8d826123d9565b808452611ea1816020860160208601612477565b611eaa816124aa565b602085010191505092915050565b6000611ec3826123ce565b808452611ed7816020860160208601612477565b611ee0816124aa565b602085010191505092915050565b600081546001811660008114611f0b5760018114611f2b57611f6c565b607f600283041680865260ff198316602087015260408601935050611f6c565b60028204808652602086019550611f4185612390565b60005b82811015611f6357815481890152600182019150602081019050611f44565b80880195505050505b505092915050565b60006060830160008301518482036000860152611f918282611eb8565b91505060208301518482036020860152611fab8282611eb8565b91505060408301518482036040860152611fc58282611eb8565b9150508091505092915050565b60006060830160008084018583036000870152611fef8382611eee565b9250506001840185830360208701526120088382611eee565b9250506002840185830360408701526120218382611eee565b925050819250505092915050565b60006040830160008301516120476000860182611cae565b506020830151848203602086015261205f8282611cbd565b9150508091505092915050565b6000604083016000808401549050612083816124bb565b6120906000870182611cae565b506001840185830360208701526120a78382611d2b565b925050819250505092915050565b60006020820190506120ca6000830184611cae565b92915050565b600060208201905081810360008301526120ea8184611d98565b905092915050565b6000602082019050818103600083015261210c8184611e06565b905092915050565b60006020820190506121296000830184611e73565b92915050565b600060208201905081810360008301526121498184611e82565b905092915050565b600060e082019050818103600083015261216b818a611e82565b9050818103602083015261217f8189611e82565b905081810360408301526121938188611e82565b905081810360608301526121a78187611e82565b905081810360808301526121bb8186611e82565b905081810360a08301526121cf8185611e82565b90506121de60c0830184611cae565b98975050505050505050565b600060e0820190508181036000830152612204818a611eee565b905081810360208301526122188189611eee565b9050818103604083015261222c8188611eee565b905081810360608301526122408187611eee565b905081810360808301526122548186611eee565b905081810360a08301526122688185611eee565b905061227760c0830184611cae565b98975050505050505050565b6000602082019050818103600083015261229d8184611fd2565b905092915050565b6000604051905081810181811067ffffffffffffffff821117156122c857600080fd5b8060405250919050565b600067ffffffffffffffff8211156122e957600080fd5b602082029050602081019050919050565b600067ffffffffffffffff82111561231157600080fd5b601f19601f8301169050602081019050919050565b600067ffffffffffffffff82111561233d57600080fd5b601f19601f8301169050602081019050919050565b6000602082019050919050565b60008160005260206000209050919050565b6000602082019050919050565b60008160005260206000209050919050565b60008160005260206000209050919050565b600081519050919050565b600081549050919050565b600081519050919050565b600081549050919050565b600081519050919050565b600081519050919050565b6000602082019050919050565b6000600182019050919050565b6000602082019050919050565b6000600182019050919050565b600061242382612436565b9050919050565b60008115159050919050565b600073ffffffffffffffffffffffffffffffffffffffff82169050919050565b600061246182612436565b9050919050565b82818337600083830152505050565b60005b8381101561249557808201518184015260208101905061247a565b838111156124a4576000848401525b50505050565b6000601f19601f8301169050919050565b600060018204905091905056fea265627a7a723058201fddc56134dd41f7f1d658243b4e6b684e31ed11eb1220a95302245e215f06646c6578706572696d656e74616cf50037",
  "source": "pragma solidity ^0.5.0;\r\npragma experimental ABIEncoderV2;\r\n\r\ncontract IdentitiesChain {\r\n    \r\n    struct Usuario{\r\n        string usuario;\r\n        string clave;\r\n        Cedula cedula;\r\n        Documento[] docs;\r\n        Permiso[] permisos;\r\n    }\r\n    \r\n    struct Cedula{\r\n        string nombre;\r\n        string fecha;\r\n        string sexo;\r\n        string ciudad;\r\n        string departamento;\r\n        string url;\r\n    }\r\n\r\n    struct Documento{\r\n        string nombre;\r\n        string url;\r\n        string hash;\r\n    }\r\n\r\n    struct Permiso{\r\n        address duenio;\r\n        Documento[] docs; \r\n    }\r\n    \r\n    address usuarioActivo;\r\n    mapping(address => Usuario) usuarios;\r\n    mapping(string => Permiso) permisos;\r\n    mapping(string => Documento) documentos;\r\n   \r\n   constructor() public {}\r\n   \r\n   function iniciarSesion(string memory _usuario, string memory _clave) public returns(bool){\r\n       require(keccak256(abi.encodePacked((usuarios[msg.sender].usuario))) == keccak256(abi.encodePacked((_usuario))) && keccak256(abi.encodePacked((usuarios[msg.sender].clave))) == keccak256(abi.encodePacked((_clave))) );\r\n       usuarioActivo = msg.sender;\r\n       return true;\r\n   }\r\n   \r\n   function nuevoUsuario(string memory _usuario, string memory _clave, address sender) public returns(address){\r\n\r\n        //Usuario memory user;\r\n        //user = usuarios[msg.sender];\r\n        usuarios[msg.sender].usuario = _usuario;\r\n        usuarios[msg.sender].clave = _clave;\r\n        usuarioActivo = msg.sender;\r\n        return usuarioActivo;\r\n    }\r\n    \r\n    function getUsuario() public view returns(string memory) {\r\n        return usuarios[msg.sender].usuario;\r\n    }\r\n    \r\n    function nuevaCedula(string memory _nombre, string memory _fecha, string memory _sexo, string memory _ciudad, string memory _departamento, string memory _url) public {\r\n\r\n        //Cedula memory _cedula = usuarios[usuarioActivo].cedula;\r\n        usuarios[usuarioActivo].cedula.nombre = _nombre;\r\n        usuarios[usuarioActivo].cedula.fecha = _fecha;\r\n        usuarios[usuarioActivo].cedula.sexo = _sexo;\r\n        usuarios[usuarioActivo].cedula.ciudad = _ciudad;\r\n        usuarios[usuarioActivo].cedula.departamento = _departamento;\r\n        usuarios[usuarioActivo].cedula.url = _url;\r\n    }\r\n\r\n    event Cedulita(\r\n        string nombre,\r\n        string fecha,\r\n        string sexo,\r\n        string ciudad,\r\n        string departamento,\r\n        string url,\r\n        address adr\r\n    );\r\n    \r\n    function getCedula(string memory dir) public returns(string memory, string memory, string memory, string memory, string memory, string memory, address){\r\n        //Cedula memory _cedula = usuarios[usuarioActivo].cedula;\r\n        emit Cedulita(usuarios[usuarioActivo].cedula.nombre, usuarios[usuarioActivo].cedula.fecha, usuarios[usuarioActivo].cedula.sexo,\r\n         usuarios[usuarioActivo].cedula.ciudad, usuarios[usuarioActivo].cedula.departamento, usuarios[usuarioActivo].cedula.url, usuarioActivo);\r\n    }\r\n    \r\n    function nuevoDocumento(string memory _nombre, string memory _url, string memory _hash, string memory _idDoc) public {\r\n        documentos[_idDoc].nombre = _nombre;\r\n        documentos[_idDoc].url = _url;\r\n        documentos[_idDoc].hash = _hash;\r\n        usuarios[usuarioActivo].docs.push(documentos[_idDoc]);\r\n    }\r\n    \r\n    event Documentos(\r\n        Documento docs\r\n    );\r\n    \r\n    function getDocumentos() public {\r\n        for(uint i=0; i<usuarios[usuarioActivo].docs.length; i++){\r\n            emit Documentos(usuarios[usuarioActivo].docs[i]);\r\n        }\r\n    }\r\n\r\n    function compartir(address _destinatario, string[] memory _idDocs, string memory idPermiso) public {\r\n        permisos[idPermiso].duenio = msg.sender;\r\n        uint tam = _idDocs.length;\r\n        for(uint i=0; i<tam; i++){\r\n            permisos[idPermiso].docs.push(documentos[_idDocs[i]]);   \r\n        }\r\n        usuarios[_destinatario].permisos.push(permisos[idPermiso]);\r\n    }\r\n    \r\n    event Permisos(\r\n        Permiso[] perms    \r\n    );\r\n    \r\n    function getPermisos() public returns(Permiso[] memory p){\r\n        emit Permisos(usuarios[usuarioActivo].permisos);\r\n    }\r\n   \r\n}",
  "sourcePath": "D:/Blockchain/aplicacionAngular/contracts/IdentitiesChain.sol",
  "compiler": {
    "name": "solc",
    "version": "0.5.0+commit.1d4f565a.Emscripten.clang"
  },
  "schemaVersion": "3.0.9",
  "updatedAt": "2019-05-29T17:20:41.796Z",
  "devdoc": {
    "methods": {}
  },
  "userdoc": {
    "methods": {}
  }
}